:100000007DC0000096C0000094C0000092C00000B7
:1000100090C000008EC000008CC000008AC00000AC
:1000200088C0000086C0000084C0000061C30000DA
:1000300007C400007EC000007CC000007AC0000041
:1000400078C0000076C0000074C0000072C00000DC
:1000500070C00000E0C000006CC000006AC000007A
:1000600068C0000066C0000064C0000062C00000FC
:1000700060C00000180355005400200052004F00DB
:1000800043004B0045005400520059000000180383
:1000900055005400200052004F0043004B00450023
:1000A00054005200590000000403090409023E00F4
:1000B000020100C03209040000010202010005240F
:1000C000001001042402060524060001070582032E
:1000D0000800FF09040100020A00000007050402ED
:1000E000100005070583021000051201100102002F
:1000F0000008EB03442001000102DC0111241FBEB3
:10010000CFEFD4E0DEBFCDBF11E0A0E0B1E0E6E389
:10011000FFE002C005900D92AC31B107D9F721E0A4
:10012000ACE1B1E001C01D92A833B207E1F74AD0BB
:1001300000C766CF84B7877F84BF0FB6F894A895B1
:1001400080916000886180936000109260000FBE13
:1001500090E080E80FB6F89480936100909361007E
:100160000FBEB7C2589A2FEF80E792E0215080402F
:100170009040E1F700C0000058982FEF80E792E030
:10018000215080409040E1F700C000000895EACF80
:1001900080E091E014C580E091E01BC6089584B131
:1001A000876084B98CB581658CBD089528988EBD13
:1001B0000DB407FEFDCF6EBD0DB407FEFDCF289A2E
:1001C0008EB5089585B5856085BD80916E0081608E
:1001D00080936E00209A509A289A7894ABDF6DE154
:1001E00071E080E091E0E1D57894D9DF69E682E8BA
:1001F000DDDF60E088E2DADF682F70E080E091E028
:1002000003D52FEF89E698E1215080409040E1F737
:1002100000C00000EECF1F920F920FB60F92112474
:100220002F933F934F935F936F937F938F939F93FE
:10023000AF93BF93EF93FF93F89480911C018F5F6E
:1002400080931C0180E091E07AD580E091E061D557
:100250009CD47894FF91EF91BF91AF919F918F9132
:100260007F916F915F914F913F912F910F900FBEB2
:100270000F901F901895292F33272230310559F000
:100280002330310569F021303105E9F482E190E055
:100290002AEE30E01CC08EE390E02CEA30E017C07C
:1002A00099278130910549F028F0029761F4E4E73D
:1002B000F0E005C0E8EAF0E002C0EEE8F0E084918A
:1002C00090E09F0104C080E090E020E030E0FA017F
:1002D000318320830895CF92DF92EF92FF920F93A4
:1002E0001F93CF93DF93EC018B017A0187D18111AA
:1002F00032C0E114F10439F0F70180819181081BCB
:10030000190BC80FD91FC12CD12C0115110511F1E2
:100310008091E80085FD15C08091E8008E7780937C
:10032000E800E114F10449F0F70180819181C80EE1
:10033000D91ED182C08285E00EC060D1882329F306
:100340000AC089918093F10001501109FFEFCF1A83
:10035000DF0ADBCF80E0DF91CF911F910F91FF90FB
:10036000EF90DF90CF9008952091360130913701C2
:100370002617370748F06115710539F42091E80018
:100380002E772093E80001C0B901FC0120E061153F
:10039000710561F180912F018823D9F18530D9F160
:1003A0008091E80083FD39C08091E80082FD2BC078
:1003B0008091E80080FFEBCF8091F20090E0611522
:1003C000710551F08830910538F421912093F100A6
:1003D000615071090196F3CF21E0089709F020E000
:1003E0008091E8008E778093E800D1CF2111D2CFA1
:1003F0000AC080912F01882361F0853061F08091DF
:10040000E80083FD0AC08091E80082FFF2CF80E01F
:10041000089582E0089583E0089581E00895209191
:100420003601309137012617370748F061157105FD
:1004300039F42091E8002E772093E80001C0B9013B
:10044000FC0120E06115710579F180912F0188236D
:1004500009F43DC0853009F43CC08091E80083FD7B
:100460003AC08091E80082FD2CC08091E80080FFB6
:10047000E9CF8091F20090E06115710559F0883064
:10048000910540F424912093F10031966150710957
:100490000196F2CF21E0089709F020E08091E80072
:1004A0008E778093E800CECF2111CFCF0AC0809104
:1004B0002F01882361F0853061F08091E80083FD91
:1004C0000AC08091E80082FFF2CF80E0089582E0C8
:1004D000089583E0089581E00895982F953068F598
:1004E0009093E900981739F07091EC002091ED009D
:1004F0005091F00003C0242F762F50E021FD02C060
:100500009F5FECCF3091EB003E7F3093EB0030915A
:10051000ED003D7F3093ED003091EB003160309382
:10052000EB007093EC002093ED005093F0002091CD
:10053000EE0027FDE5CF80E008958F708093E900FD
:1005400081E008950F931F93CF93DF93062FEC0163
:1005500010E0101771F19881911103C01F5F25966B
:10056000F8CF2C81A981BA816B81892F8F7085305A
:1005700010F080E01FC0223010F442E001C046E0DD
:10058000E8E0F0E020E0EA17FB0720F42F5FEE0F31
:10059000FF1FF9CF2295207F422B6295660F660FD1
:1005A000607C991F9927991F692B97DF8111D6CFFE
:1005B000E0CF81E0DF91CF911F910F91089580915D
:1005C000300187FF11C08091E80082FD05C0809155
:1005D0002F018111F8CF11C08091E8008B770BC0FB
:1005E00080912F01882349F08091E80080FFF8CFA7
:1005F0008091E8008E778093E80008952091E400D0
:100600003091E50095E64091EC00842F817040FF29
:1006100023C08091E80080FD1DC080912F018823B8
:1006200099F0853099F08091EB0085FD11C04091E3
:10063000E4005091E5002417350729F3915011F09B
:100640009A01E1CF84E0089582E0089583E008955F
:1006500081E0089580E008954091E80042FFDDCFF9
:10066000089540D042D08091D8008F778093D800F1
:100670008091D80080688093D8008091D8008F7DC9
:100680008093D80019BC82E089BD09B400FEFDCF7B
:1006900010922F0110922B0110922D0110922C011B
:1006A00042E060E080E019DF8091E1008E7F80937E
:1006B000E1008091E20081608093E2008091E2009D
:1006C00088608093E2008091E0008E7F8093E0005C
:1006D0000895E3E6F0E080818E7F808381E080935F
:1006E0002E01BFCF1092E20008951092E10008950C
:1006F0001F920F920FB60F9211242F933F934F9397
:100700005F936F937F938F939F93AF93BF93EF9379
:10071000FF938091E10082FF0AC08091E20082FF96
:1007200006C08091E1008B7F8093E1002DD2809103
:10073000E10080FF17C08091E20080FF13C080912C
:10074000E2008E7F8093E2008091E20080618093DE
:10075000E2008091D80080628093D80019BC10928A
:100760002F0100DD8091E10084FF2EC08091E20026
:1007700084FF2AC019BC82E089BD09B400FEFDCF08
:100780008091D8008F7D8093D8008091E1008F7E8A
:100790008093E1008091E2008F7E8093E20080915F
:1007A000E20081608093E20080912B01882311F0A8
:1007B00084E007C08091E30087FD02C081E001C0B2
:1007C00083E080932F01E3DC8091E10083FF27C069
:1007D0008091E20083FF23C08091E100877F8093B6
:1007E000E10082E080932F0110922B018091E100C3
:1007F0008E7F8093E1008091E2008E7F8093E20003
:100800008091E20080618093E20042E060E080E05D
:1008100064DE8091F00088608093F000B5D1FF9194
:10082000EF91BF91AF919F918F917F916F915F9168
:100830004F913F912F910F900FBE0F901F901895E1
:100840001F920F920FB60F9211242F933F934F9345
:100850005F936F937F938F939F93AF93BF93CF9348
:10086000DF93EF93FF93C091E900CF708091EC008C
:10087000D82FD17080FDD0E81092E9008091F0006F
:10088000877F8093F00078941ED01092E9008091C9
:10089000F00088608093F000CD2BCF70C093E9000A
:1008A000FF91EF91DF91CF91BF91AF919F918F9188
:1008B0007F916F915F914F913F912F910F900FBE5C
:1008C0000F901F9018951F93CF93DF93CDB7DEB78E
:1008D000AA970FB6F894DEBF0FBECDBFE0E3F1E0FC
:1008E0008091F100819321E0E833F207C9F753DCEE
:1008F0008091E80083FF30C18091300190913101F7
:10090000953009F483C030F49130A9F168F0933048
:1009100091F122C1983009F4EFC0993009F4FBC07D
:10092000963009F019C194C0803821F0823809F05E
:1009300013C108C080912C0190912D01992389F059
:1009400082600FC0809134018F70853008F004C13F
:100950008093E9008091EB0085FB882780F9109255
:10096000E9009091E800977F9093E8008093F10070
:100970001092F100CCC0282F2D7F09F0EDC0882304
:1009800019F0823061F0E8C080913201813009F0C5
:10099000E3C0933009F080E080932D012EC0809158
:1009A000320181112AC0809134018F702FEF280FFE
:1009B000243008F0D1C08093E9002091EB0020FFA3
:1009C0001CC0933021F48091EB00806214C09091A0
:1009D000EB0090619093EB0021E030E0A90102C0B0
:1009E000440F551F8A95E2F74093EA001092EA00FF
:1009F0008091EB0088608093EB001092E900809179
:100A0000E800877F8093E800DADDA6C08111A4C0EA
:100A1000109132011F778091E3008078812B8093C1
:100A2000E3008091E800877F8093E800C8DD809133
:100A3000E80080FFFCCF8091E30080688093E300B2
:100A4000111102C082E001C083E080932F0184C0B5
:100A50008058823008F080C080913201909133013B
:100A60008C3D53E0950771F583E08A838AE28983A0
:100A70004FB7F894DE01139620E03EE051E2E32FF9
:100A8000F0E050935700E49120FF03C0E295EF702F
:100A90003F5FEF708E2F90E0EA3010F0C79601C0F4
:100AA000C0968D939D932F5F243149F74FBF80915E
:100AB000E800877F8093E8006AE270E0CE0101964B
:100AC00053DC14C06091340170913501AE014F5F69
:100AD0005F4FD1DBBC01892B09F43EC09091E80047
:100AE000977F9093E80089819A8199DC8091E80052
:100AF0008B778093E80030C0803871F58091E800F2
:100B0000877F8093E80080912B018093F100809192
:100B1000E8008E7777CF81111FC0809132019091CC
:100B2000330199270297C4F48091E800877F80936E
:100B3000E8008091320180932B0141DD80912B01EF
:100B4000811106C08091E30087FD02C081E001C0F1
:100B500084E080932F011CDB8091E80083FF0AC0B2
:100B60008091E800877F8093E8008091EB008062AD
:100B70008093EB00AA960FB6F894DEBF0FBECDBFF0
:100B8000DF91CF911F9108950895CF9380912F0108
:100B9000882399F0C091E900CF709091EC00892FE3
:100BA000817090FD80E8C82B1092E9008091E800E8
:100BB00083FD89DECF70C093E900CF910895CF9374
:100BC000DF93EC01FC0170968BE0DF011D928A95AA
:100BD000E9F782E08C83898783E08E8761E0CE012C
:100BE0000196B0DC882361F061E0CE010696AADCB4
:100BF000882331F061E0CE010B96DF91CF91A2CC3A
:100C000080E0DF91CF910895DB0120912F01243006
:100C1000C9F4FC014489558966897789452B462B9F
:100C2000472B81F081818F708093E900FD01019055
:100C30000020E9F73197BF016A1B7B0B40E050E0D1
:100C4000CD0149CB82E008950F931F93CF9320915C
:100C50002F012430F9F4FC0104891589268937898C
:100C6000012B022B032BB1F0C62F81818F70809353
:100C7000E9008091E80085FF04C0C093F10080E0A6
:100C80000AC08091E8008E778093E800B7DC882363
:100C9000A1F301C082E0CF911F910F910895FB0154
:100CA000682F84859585D0DF21E030E0811102C076
:100CB00020E030E088279927821B930B089520912C
:100CC0002F01243021F5FC014489558966897789F3
:100CD000452B462B472BD9F081818F708093E900FB
:100CE0008091F200882389F09091E8008091E800DB
:100CF0008E778093E80095FD08C080DC811108C0E4
:100D00008091E8008E778093E80080E0089582E08B
:100D1000089520912F01243089F4FC0144895589DC
:100D200066897789452B462B472B41F021812F700F
:100D30002093E9002091E80020FDC1CF0895209183
:100D40002F01243019F08FEF9FEF0895FC014489A3
:100D5000558966897789452B462B472BA1F38681D8
:100D60008F708093E9008091E80082FFECCF809142
:100D7000F200882321F02091F10030E002C02FEF33
:100D80003FEF8091F200811105C08091E8008B77E0
:100D90008093E800C9010895FC0184859585CFDF23
:100DA00097FF02C08EEF9FEF0895FB012EE0DB015D
:100DB0001D922A95E9F723E023832FE436E031875B
:100DC00020872CEC36E03387228795878487089527
:100DD0000895CF93DF93EC018091E80083FFA6C0D4
:100DE000888190E02091340130913501281739072E
:100DF00009F09CC080913101813261F020F4803291
:100E000009F43EC093C0823209F46CC0833209F405
:100E10007DC08CC080913001813A09F087C08091FB
:100E2000E800877F8093E8008091E80080FFFCCF96
:100E30008C899D89AE89BF898093F100492F5A2FF3
:100E40006B2F77274093F100AD01662777274093FA
:100E5000F1008B2F9927AA27BB278093F100888D5B
:100E60008093F100898D8093F1008A8D8093F10049
:100E70008091E8008E778093E800DF91CF919FCB3F
:100E800080913001813209F051C08091E800877F64
:100E90008093E8008091E80082FD05C080912F01D9
:100EA0008111F8CF43C03091F1002091F100909171
:100EB000F1008091F1003C8B2D8B9E8B8F8B80916C
:100EC000F100888F8091F100898F8091F1008A8FE5
:100ED0008091E8008B778093E80071DBCE01DF9191
:100EE000CF9176CF80913001813201F58091E80079
:100EF000877F8093E80063DB80913201909133011A
:100F0000998B888BCE01DF91CF9148C980913001B8
:100F1000813261F48091E800877F8093E8004FDBA5
:100F200060913201CE01DF91CF9152CFDF91CF910D
:060F30000895F894FFCFC4
:100F36000083100000010410000001820800000177
:0C0F46000000000000000000000000009F
:00000001FF
