:1000000075C000008EC000008CC000008AC00000D7
:1000100088C0000086C0000084C0000082C00000CC
:1000200080C000007EC000007CC000007CC20000D8
:1000300022C3000076C0000074C0000072C000003F
:1000400070C000006EC000006CC000006AC00000FC
:1000500068C0000066C0000064C0000062C000000C
:1000600060C000005EC000005CC000005AC000001C
:1000700058C0000016034C005700520041002000F9
:100080005200450056002000440000000A034C00C6
:1000900057005200410000000403090409023E0019
:1000A000020100C03209040000010202010005241F
:1000B000001001042402060524060001070582033E
:1000C0000800FF09040100020A00000007050402FD
:1000D000100005070583021000051201100102003F
:1000E0000008EB03442001000102DC0111241FBEC3
:1000F000CFEFD2E0DEBFCDBF11E0A0E0B1E0E2E59E
:10010000FFE002C005900D92AC31B107D9F721E0B4
:10011000ACE1B1E001C01D92A932B207E1F749D0CC
:1001200016C76ECF0895089580E091E043C480E043
:1001300091E066C4089584B1806C84B9509A84B506
:10014000816F84BD94E095BD87B1806687B9E0E892
:10015000F0E08081816F80839093810008950497FF
:1001600039F5072E000C880B990BFAD52AE939E9E5
:1001700049E15FE381D62DEC3CEC4CEC5DE37CD6B1
:1001800020E030E040EC5FE3ECD426E636E642E8DF
:1001900051E44BD520E030E04FE753E46DD69B01AE
:1001A000AC0160E070E08FE793E4DAD4A6D567BDD8
:1001B000089590E080E80FB6F894809361009093E2
:1001C00061000FBEB8DFC4E1D0E0C12CD12C80E2C9
:1001D000E82E81ECF82E2FEF81E19AE72150804044
:1001E0009040E1F700C00000C701B60186D584E069
:1001F00090E0B5DF20E030E040E85FE3C701B60102
:10020000B0D46B017C01219731F7DDCF292F332743
:100210002230310559F02330310569F021303105A4
:10022000F9F482E190E02AED30E01EC08EE390E028
:100230002CE930E019C099278130910541F08230D6
:10024000910541F0892B61F4E8E9F0E005C0ECE8A4
:10025000F0E002C0E4E7F0E0849190E09F0104C088
:1002600080E090E020E030E0FA01318320830895BF
:1002700020912701309128012617370748F0611592
:10028000710539F42091E8002E772093E80001C031
:10029000B90140E06115710591F1209120012223FF
:1002A00009F440C0253009F43FC02091E80023FD47
:1002B0003DC02091E80022FD2FC02091E80020FFE2
:1002C000E9CF2091F20030E0FC01CF01611571050A
:1002D00059F02830310540F481918093F10061504C
:1002E00071092F5F3F4FF1CF41E02830310509F010
:1002F00040E02091E8002E772093E800CBCF411119
:10030000CCCF0AC080912001882361F0853061F054
:100310008091E80083FD0AC08091E80082FFF2CF5F
:1003200080E0089582E0089583E0089581E00895D3
:1003300020912701309128012617370748F06115D1
:10034000710539F42091E8002E772093E80001C070
:10035000B901FC0120E06115710579F1809120015E
:10036000882309F43DC0853009F43CC08091E80041
:1003700083FD3AC08091E80082FD2CC08091E800A6
:1003800080FFE9CF8091F20090E06115710559F08E
:100390008830910540F424912093F100319661500A
:1003A00071090196F2CF21E0089709F020E08091D1
:1003B000E8008E778093E800CECF2111CFCF0AC01E
:1003C00080912001882361F0853061F08091E80000
:1003D00083FD0AC08091E80082FFF2CF80E008959B
:1003E00082E0089583E0089581E00895982F953084
:1003F00058F59093E900981739F07091EC0020912E
:10040000ED005091F00003C0242F762F50E021FF23
:1004100019C03091EB003E7F3093EB003091ED003E
:100420003D7F3093ED003091EB0031603093EB0075
:100430007093EC002093ED005093F0002091EE00BB
:1004400027FF07C09F5FD3CF8F708093E90081E0C3
:10045000089580E00895EF92FF920F931F93CF933A
:10046000DF93E62EEC018C010C5F1F4FF12CFE1484
:1004700099F19881992359F1F801208169817A8154
:1004800031973081892F8F70853010F080E025C042
:10049000223010F442E001C046E0E8E0F0E020E065
:1004A000E617F70720F42F5FEE0FFF1FF9CF229515
:1004B000207F422B232F2295220F220F207C991F71
:1004C0009927991F622F692B91DF8823F9F2F39402
:1004D00025960B5F1F4FCBCF81E0DF91CF911F910E
:1004E0000F91FF90EF9008958091210187FF11C037
:1004F0008091E80082FD05C0809120018111F8CF34
:1005000011C08091E8008B770BC080912001882377
:1005100049F08091E80080FFF8CF8091E8008E7765
:100520008093E80008951F920F920FB60F92112446
:100530002F933F934F935F936F937F938F939F93EB
:10054000AF93BF93EF93FF938091E10082FF0AC0C6
:100550008091E20082FF06C08091E1008B7F809352
:10056000E10027D28091E10080FF17C08091E20076
:1005700080FF13C08091E2008E7F8093E200809123
:10058000E20080618093E2008091D80080628093D5
:10059000D80019BC10922001C6DD8091E10084FFD3
:1005A0002EC08091E20084FF2AC019BC82E089BD80
:1005B00009B400FEFDCF8091D8008F7D8093D800D4
:1005C0008091E1008F7E8093E1008091E2008F7E38
:1005D0008093E2008091E20081608093E20080914C
:1005E0001C01882311F084E007C08091E30087FD9F
:1005F00002C081E001C083E08093200193DD8091FF
:10060000E10083FF27C08091E20083FF23C0809137
:10061000E100877F8093E10082E0809320011092C7
:100620001C018091E1008E7F8093E1008091E200C7
:100630008E7F8093E2008091E20080618093E200EF
:1006400042E060E080E0D2DE8091F000886080933C
:10065000F000AFD1FF91EF91BF91AF919F918F913A
:100660007F916F915F914F913F912F910F900FBEAE
:100670000F901F9018951F920F920FB60F92112492
:100680002F933F934F935F936F937F938F939F939A
:10069000AF93BF93CF93DF93EF93FF93C091E900A4
:1006A000CF708091EC00D82FD17080FDD0E81092EF
:1006B000E9008091F000877F8093F00078941ED04D
:1006C0001092E9008091F00088608093F000CD2BBB
:1006D000CF70C093E900FF91EF91DF91CF91BF916F
:1006E000AF919F918F917F916F915F914F913F91CA
:1006F0002F910F900FBE0F901F9018951F93CF93BF
:10070000DF93CDB7DEB7AA970FB6F894DEBF0FBE62
:10071000CDBFE1E2F1E088E08E0F9091F10091937E
:100720008E13FBCF04DD8091E80083FF2AC1809106
:10073000210190912201953009F483C030F4913069
:10074000A9F168F0933091F11CC1983009F4EEC022
:10075000993009F4FAC0963009F013C194C080387A
:1007600021F0823809F00DC108C080911D019091DF
:100770001E01992389F082600FC0809125018F703E
:10078000853008F0FEC08093E9008091EB0085FB86
:10079000882780F91092E9009091E800977F909364
:1007A000E8008093F1001092F100CBC0282F2D7F3C
:1007B00009F0E7C0882319F0823061F0E2C080912F
:1007C0002301813009F0DDC0933009F080E080938F
:1007D0001E012EC08091230181112AC08091250124
:1007E0008F702FEF280F243008F0CBC08093E900E2
:1007F0002091EB0020FF1CC0933021F48091EB008E
:10080000806214C09091EB0090619093EB0021E026
:1008100030E0A90102C0440F551F8A95E2F74093CA
:10082000EA001092EA008091EB0088608093EB0070
:100830001092E9008091E800877F8093E80054DE01
:10084000A0C081119EC0109123011F778091E30009
:100850008078812B8093E3008091E800877F8093EC
:10086000E80042DE8091E80080FFFCCF8091E30049
:1008700080688093E300111102C082E001C083E030
:10088000809320017EC08058823008F07AC0809129
:100890002301909124018C3D53E0950771F583E08D
:1008A0008A838AE289834FB7F894DE01139620E0A9
:1008B0003EE051E2E32FF0E050935700E49120FF37
:1008C00003C0E295EF703F5FEF708E2F90E0EA304B
:1008D00010F0C79601C0C0968D939D932F5F243171
:1008E00049F74FBF8091E800877F8093E8006AE274
:1008F00070E0CE010196BCDC13C0609125017091BF
:100900002601AE014F5F5F4F81DCBC01892BC9F12D
:100910009091E800977F9093E80089819A8108DDA3
:100920008091E8008B778093E8002BC0803849F5F0
:100930008091E800877F8093E80080911C0180937C
:10094000F1008091E8008E7778CF81111AC09091E4
:1009500023019230B0F48091E800877F8093E80013
:1009600090931C01C1DD80911C01811106C0809112
:10097000E30087FD02C081E001C084E08093200194
:10098000D3DB8091E80083FF0AC08091E800877F75
:100990008093E8008091EB0080628093EB00AA9640
:1009A0000FB6F894DEBF0FBECDBFDF91CF911F9180
:1009B00008950895CF93DF93EC01FC0170968BE0CE
:1009C000DF011D928A95E9F782E08C83898783E0B5
:1009D0008E8761E0CE0101963EDD882361F061E003
:1009E000CE01069638DD882331F061E0CE010B960A
:1009F000DF91CF9130CD80E0DF91CF9108950895C0
:100A0000CF93DF93EC018091E80083FFA6C088813B
:100A100090E020912501309126012817390709F02F
:100A20009CC080912201813261F020F4803209F46F
:100A30003EC093C0823209F46CC0833209F47DC099
:100A40008CC080912101813A09F087C08091E80033
:100A5000877F8093E8008091E80080FFFCCF8C893D
:100A60009D89AE89BF898093F100492F5A2F6B2F42
:100A700077274093F100AD01662777274093F10077
:100A80008B2F9927AA27BB278093F100888D80930D
:100A9000F100898D8093F1008A8D8093F10080911F
:100AA000E8008E778093E800DF91CF911DCD809193
:100AB0002101813209F051C08091E800877F809345
:100AC000E8008091E80082FD05C08091200181113D
:100AD000F8CF43C03091F1002091F1009091F100E6
:100AE0008091F1003C8B2D8B9E8B8F8B8091F10040
:100AF000888F8091F100898F8091F1008A8F809199
:100B0000E8008B778093E800EFDCCE01DF91CF9196
:100B100076CF80912101813201F58091E800877FB5
:100B20008093E800E1DC8091230190912401998B6E
:100B3000888BCE01DF91CF91FDCA80912101813256
:100B400061F48091E800877F8093E800CDDC6091BC
:100B50002301CE01DF91CF9152CFDF91CF91089544
:100B60005058BB27AA270ED04DC13ED130F043D1FB
:100B700020F031F49F3F11F41EF433C10EF4E095E0
:100B8000E7FB29C1E92F4FD180F3BA17620773073A
:100B90008407950718F071F49EF567C10EF4E0958F
:100BA0000B2EBA2FA02D0B01B90190010C01CA0127
:100BB000A0011124FF27591B99F0593F50F4503ED2
:100BC00068F11A16F040A22F232F342F4427585FC4
:100BD000F3CF469537952795A795F0405395C9F7DC
:100BE0007EF41F16BA0B620B730B840BBAF0915094
:100BF000A1F0FF0FBB1F661F771F881FC2F70EC033
:100C0000BA0F621F731F841F48F487957795679505
:100C1000B795F7959E3F08F0B3CF9395880F08F0EE
:100C20009927EE0F9795879508950CD0EBC0E3D0E8
:100C300040F0DAD030F021F45F3F19F0CCC0511110
:100C400015C1CFC0F0D098F39923C9F35523B1F360
:100C5000951B550BBB27AA2762177307840738F02B
:100C60009F5F5F4F220F331F441FAA1FA9F333D08A
:100C70000E2E3AF0E0E830D091505040E695001C3E
:100C8000CAF729D0FE2F27D0660F771F881FBB1FFA
:100C9000261737074807AB07B0E809F0BB0B802DD4
:100CA000BF01FF2793585F4F2AF09E3F510568F020
:100CB00092C0DCC05F3FECF3983EDCF386957795FD
:100CC0006795B795F7959F5FC9F7880F911D969522
:100CD000879597F90895E1E0660F771F881FBB1F7E
:100CE000621773078407BA0720F0621B730B840B2B
:100CF000BA0BEE1F88F7E095089504D06894B111FF
:100D0000B5C0089598D088F09F5790F0B92F9927D3
:100D1000B751A0F0D1F0660F771F881F991F1AF006
:100D2000BA95C9F712C0B13081F09FD0B1E00895F3
:100D30009CC0672F782F8827B85F39F0B93FCCF374
:100D4000869577956795B395D9F73EF490958095FC
:100D5000709561957F4F8F4F9F4F0895E89409C01C
:100D600097FB3EF490958095709561957F4F8F4FDE
:100D70009F4F9923A9F0F92F96E9BB279395F695F4
:100D8000879577956795B795F111F8CFFAF4BB0F72
:100D900011F460FF1BC06F5F7F4F8F4F9F4F16C0D6
:100DA000882311F096E911C0772321F09EE8872F60
:100DB000762F05C0662371F096E8862F70E060E01C
:100DC0002AF09A95660F771F881FDAF7880F969595
:100DD000879597F9089597F99F6780E870E060E03C
:100DE00008959FEF80EC089500240A9416161706C4
:100DF00018060906089500240A941216130614060C
:100E000005060895092E0394000C11F4882352F06E
:100E1000BB0F40F4BF2B11F460FF04C06F5F7F4F26
:100E20008F4F9F4F089557FD9058440F551F59F00D
:100E30005F3F71F04795880F97FB991F61F09F3FC7
:100E400079F087950895121613061406551FF2CFF0
:100E50004695F1DF08C0161617061806991FF1CF40
:100E600086957105610508940895E894BB27662767
:100E70007727CB0197F908950AD0C4CFB5DF28F0C2
:100E8000BADF18F0952309F0A6CFABCFEFCFCBDFB9
:100E9000A8F39923D9F35523C9F3950F50E0551FB3
:100EA000AA27EE27FF27BB2700240894679520F484
:100EB000E20FF31FB41F0A1E220F331F441FAA1F85
:100EC0006695A9F7779530F4F30FB41F0A1E121E2A
:100ED00008F46395330F441FAA1F221F769599F7D4
:100EE000879520F4B40F0A1E121E631F440FAA1F19
:100EF000221F331F8695A9F7862F712D602D11248F
:100F00009F5750408AF0E1F088234AF0EE0FFF1F10
:100F1000BB1F661F771F881F91505040A9F79E3F47
:100F2000510570F058CFA2CF5F3FECF3983EDCF351
:100F3000869577956795B795F795E7959F5FC1F784
:100F4000FE2B880F911D9695879597F90895F89433
:020F5000FFCFD1
:100F5200008310000001041000000182080000015B
:0C0F620000000000000000000000000083
:00000001FF
