:1000000075C000008EC000008CC000008AC00000D7
:1000100088C0000086C0000084C0000082C00000CC
:1000200080C000007EC000007CC0000032C2000022
:10003000D8C2000076C0000074C0000072C000008A
:1000400070C000006EC000006CC000006AC00000FC
:1000500068C0000066C0000064C0000062C000000C
:1000600060C000005EC000005CC000005AC000001C
:1000700058C0000016034C005700520041002000F9
:100080005200450056002000440000000A034C00C6
:1000900057005200410000000403090409023E0019
:1000A000020100C03209040000010202010005241F
:1000B000001001042402060524060001070582033E
:1000C0000800FF09040100020A00000007050402FD
:1000D000100005070583021000051201100102003F
:1000E0000008EB03442001000102DC0111241FBEC3
:1000F000CFEFD2E0DEBFCDBF11E0A0E0B1E0E0ED98
:10010000FAE002C005900D92AC31B107D9F721E0B9
:10011000ACE1B1E001C01D92A932B207E1F71FD0F6
:10012000D5C46ECF0895089580E091E0F9C380E0D2
:1001300091E01CC4089584B1806C84B9509A84B550
:10014000816F84BD94E095BD87B1806687B9E0E892
:10015000F0E08081816F808390938100089590E02A
:1001600080E80FB6F89480936100909361000FBE11
:10017000E2DF86EE87BDFECF292F332722303105FF
:1001800059F02330310569F021303105F9F482E16D
:1001900090E02AED30E01EC08EE390E02CE930E0E4
:1001A00019C099278130910541F08230910541F0C5
:1001B000892B61F4E8E9F0E005C0ECE8F0E002C06A
:1001C000E4E7F0E0849190E09F0104C080E090E0DB
:1001D00020E030E0FA013183208308952091270147
:1001E000309128012617370748F06115710539F459
:1001F0002091E8002E772093E80001C0B90140E08B
:100200006115710591F120912001222309F440C06C
:10021000253009F43FC02091E80023FD3DC0209126
:10022000E80022FD2FC02091E80020FFE9CF2091B7
:10023000F20030E0FC01CF016115710559F0283062
:10024000310540F481918093F100615071092F5F75
:100250003F4FF1CF41E02830310509F040E02091D7
:10026000E8002E772093E800CBCF4111CCCF0AC015
:1002700080912001882361F0853061F08091E80051
:1002800083FD0AC08091E80082FFF2CF80E00895EC
:1002900082E0089583E0089581E008952091270188
:1002A000309128012617370748F06115710539F498
:1002B0002091E8002E772093E80001C0B901FC01ED
:1002C00020E06115710579F180912001882309F4FE
:1002D0003DC0853009F43CC08091E80083FD3AC000
:1002E0008091E80082FD2CC08091E80080FFE9CF7A
:1002F0008091F20090E06115710559F08830910508
:1003000040F424912093F1003196615071090196D7
:10031000F2CF21E0089709F020E08091E8008E7785
:100320008093E800CECF2111CFCF0AC08091200169
:10033000882361F0853061F08091E80083FD0AC078
:100340008091E80082FFF2CF80E0089582E0089576
:1003500083E0089581E00895982F953058F59093A3
:10036000E900981739F07091EC002091ED00509160
:10037000F00003C0242F762F50E021FF19C03091E8
:10038000EB003E7F3093EB003091ED003D7F3093EA
:10039000ED003091EB0031603093EB007093EC0096
:1003A0002093ED005093F0002091EE0027FF07C04E
:1003B0009F5FD3CF8F708093E90081E0089580E044
:1003C0000895EF92FF920F931F93CF93DF93E62E42
:1003D000EC018C010C5F1F4FF12CFE1499F19881F8
:1003E000992359F1F801208169817A81319730810F
:1003F000892F8F70853010F080E025C0223010F4F6
:1004000042E001C046E0E8E0F0E020E0E617F70750
:1004100020F42F5FEE0FFF1FF9CF2295207F422B94
:10042000232F2295220F220F207C991F9927991F95
:10043000622F692B91DF8823F9F2F39425960B5FE5
:100440001F4FCBCF81E0DF91CF911F910F91FF9094
:10045000EF9008958091210187FF11C08091E800FD
:1004600082FD05C0809120018111F8CF11C08091DB
:10047000E8008B770BC080912001882349F08091A0
:10048000E80080FFF8CF8091E8008E778093E80045
:1004900008951F920F920FB60F9211242F933F933E
:1004A0004F935F936F937F938F939F93AF93BF937C
:1004B000EF93FF938091E10082FF0AC08091E200F8
:1004C00082FF06C08091E1008B7F8093E10027D2FC
:1004D0008091E10080FF17C08091E20080FF13C08F
:1004E0008091E2008E7F8093E2008091E200806143
:1004F0008093E2008091D80080628093D80019BC7C
:100500001092200110DE8091E10084FF2EC08091C6
:10051000E20084FF2AC019BC82E089BD09B400FE54
:10052000FDCF8091D8008F7D8093D8008091E1002D
:100530008F7E8093E1008091E2008F7E8093E200C5
:100540008091E20081608093E20080911C01882309
:1005500011F084E007C08091E30087FD02C081E0D4
:1005600001C083E080932001DDDD8091E10083FF05
:1005700027C08091E20083FF23C08091E100877F44
:100580008093E10082E08093200110921C01809111
:10059000E1008E7F8093E1008091E2008E7F809366
:1005A000E2008091E20080618093E20042E060E03E
:1005B00080E0D2DE8091F00088608093F000AFD1BF
:1005C000FF91EF91BF91AF919F918F917F916F912B
:1005D0005F914F913F912F910F900FBE0F901F9001
:1005E00018951F920F920FB60F9211242F933F93DD
:1005F0004F935F936F937F938F939F93AF93BF932B
:10060000CF93DF93EF93FF93C091E900CF70809178
:10061000EC00D82FD17080FDD0E81092E9008091D5
:10062000F000877F8093F00078941ED01092E9004C
:100630008091F00088608093F000CD2BCF70C09344
:10064000E900FF91EF91DF91CF91BF91AF919F9121
:100650008F917F916F915F914F913F912F910F906B
:100660000FBE0F901F9018951F93CF93DF93CDB7B8
:10067000DEB7AA970FB6F894DEBF0FBECDBFE1E29A
:10068000F1E088E08E0F9091F10091938E13FBCFF3
:100690004EDD8091E80083FF2AC180912101909175
:1006A0002201953009F483C030F49130A9F168F04B
:1006B000933091F11CC1983009F4EEC0993009F4DF
:1006C000FAC0963009F013C194C0803821F0823806
:1006D00009F00DC108C080911D0190911E01992360
:1006E00089F082600FC0809125018F70853008F0FD
:1006F000FEC08093E9008091EB0085FB882780F99C
:100700001092E9009091E800977F9093E800809321
:10071000F1001092F100CBC0282F2D7F09F0E7C027
:10072000882319F0823061F0E2C08091230181308A
:1007300009F0DDC0933009F080E080931E012EC0E7
:100740008091230181112AC0809125018F702FEFA4
:10075000280F243008F0CBC08093E9002091EB00F3
:1007600020FF1CC0933021F48091EB00806214C004
:100770009091EB0090619093EB0021E030E0A901B3
:1007800002C0440F551F8A95E2F74093EA00109289
:10079000EA008091EB0088608093EB001092E90002
:1007A0008091E800877F8093E80054DEA0C081112B
:1007B0009EC0109123011F778091E3008078812BE8
:1007C0008093E3008091E800877F8093E80042DE19
:1007D0008091E80080FFFCCF8091E30080688093E7
:1007E000E300111102C082E001C083E08093200188
:1007F0007EC08058823008F07AC0809123019091A9
:1008000024018C3D53E0950771F583E08A838AE2E9
:1008100089834FB7F894DE01139620E03EE051E261
:10082000E32FF0E050935700E49120FF03C0E295DE
:10083000EF703F5FEF708E2F90E0EA3010F0C796B8
:1008400001C0C0968D939D932F5F243149F74FBF10
:100850008091E800877F8093E8006AE270E0CE0133
:100860000196BCDC13C06091250170912601AE0198
:100870004F5F5F4F81DCBC01892BC9F19091E8008B
:10088000977F9093E80089819A8108DD8091E80044
:100890008B778093E8002BC0803849F58091E80081
:1008A000877F8093E80080911C018093F100809104
:1008B000E8008E7778CF81111AC090912301923091
:1008C000B0F48091E800877F8093E80090931C014A
:1008D000C1DD80911C01811106C08091E30087FD7C
:1008E00002C081E001C084E0809320011DDC809182
:1008F000E80083FF0AC08091E800877F8093E800CA
:100900008091EB0080628093EB00AA960FB6F8947A
:10091000DEBF0FBECDBFDF91CF911F910895089527
:10092000CF93DF93EC01FC0170968BE0DF011D9209
:100930008A95E9F782E08C83898783E08E8761E07E
:10094000CE0101963EDD882361F061E0CE0106967E
:1009500038DD882331F061E0CE010B96DF91CF9135
:1009600030CD80E0DF91CF9108950895CF93DF934C
:10097000EC018091E80083FFA6C0888190E020917F
:100980002501309126012817390709F09CC0809174
:100990002201813261F020F4803209F43EC093C01C
:1009A000823209F46CC0833209F47DC08CC080911E
:1009B0002101813A09F087C08091E800877F809308
:1009C000E8008091E80080FFFCCF8C899D89AE898A
:1009D000BF898093F100492F5A2F6B2F77274093BF
:1009E000F100AD01662777274093F1008B2F9927FF
:1009F000AA27BB278093F100888D8093F100898D11
:100A00008093F1008A8D8093F1008091E8008E77C9
:100A10008093E800DF91CF911DCD8091210181323B
:100A200009F051C08091E800877F8093E8008091B1
:100A3000E80082FD05C0809120018111F8CF43C0FC
:100A40003091F1002091F1009091F1008091F1003E
:100A50003C8B2D8B9E8B8F8B8091F100888F8091AA
:100A6000F100898F8091F1008A8F8091E8008B7767
:100A70008093E800EFDCCE01DF91CF9176CF8091BB
:100A80002101813201F58091E800877F8093E800A1
:100A9000E1DC8091230190912401998B888BCE0118
:100AA000DF91CF9147CB80912101813261F4809118
:100AB000E800877F8093E800CDDC60912301CE01C0
:100AC000DF91CF9152CFDF91CF910895F894FFCF6E
:100AD00000831000000104100000018208000001E2
:0C0AE0000000000000000000000000000A
:00000001FF
