:100000007DC0000097C0000095C0000093C00000B4
:1000100091C000008FC000008DC000008BC00000A8
:1000200089C0000087C0000085C00000B1C3000087
:1000300058C400007FC000007DC000007BC00000ED
:1000400079C0000077C0000075C0000073C00000D8
:1000500071C00000D0C000006DC000006BC0000087
:1000600069C0000067C0000065C0000063C00000F8
:1000700061C00000180355005400200052004F00DA
:1000800043004B0045005400520059000000180383
:1000900055005400200052004F0043004B00450023
:1000A00054005200590000000403090409023E00F4
:1000B000020100C03209040000010202010005240F
:1000C000001001042402060524060001070582032E
:1000D0000800FF09040100020A00000007050402ED
:1000E000100005070583021000051201100102002F
:1000F0000008EB03442001000102DC0111241FBEB3
:10010000CFEFD4E0DEBFCDBF11E0A0E0B1E0E2E38D
:10011000F2E102C005900D92A832B107D9F721E0B3
:10012000A8E2B1E001C01D92A434B207E1F7FFD00C
:100130000C94170965CF84B7877F84BF0FB6F894F6
:10014000A8958091600088618093600010926000A3
:100150000FBE90E080E80FB6F89480936100909312
:1001600061000FBE06C3589A2FEF80E792E021503E
:1001700080409040E1F700C0000058982FEF80E7E2
:1001800092E0215080409040E1F700C000000895C7
:10019000589A2FEF80E792E0215080409040E1F79D
:1001A00000C0000058982FEF80E792E02150804077
:1001B0009040E1F700C00000089580E091E043C561
:1001C00080E091E026C6089584B1876084B98CB53B
:1001D00081658CBD08952D984130510509F08064EA
:1001E0008EBD0DB407FEFDCF6EBD0DB407FEFDCF75
:1001F0002D9A8EB508951F920F920FB60F9211246B
:100200002F933F934F935F936F937F938F939F931E
:10021000AF93BF93EF93FF93F894809128018F5F82
:100220008093280180E091E0ABD580E091E092D509
:10023000EFD47894FF91EF91BF91AF919F918F91FF
:100240007F916F915F914F913F912F910F900FBED2
:100250000F901F9018950F931F93CF93DF93CDB7F7
:10026000DEB72A970FB6F894DEBF0FBECDBF8E0162
:100270000F5F1F4F2AE0F80111922A95E9F74AE033
:1002800050E0B8011BD769E271E0C8017CD769E290
:1002900071E08AE090E03FD72A960FB6F894DEBF6F
:1002A0000FBECDBFDF91CF911F910F910895CF92D7
:1002B000DF92EF92FF92CF93DF9300D000D0CDB7C3
:1002C000DEB76B017C0120E137E240E050E0D4D69C
:1002D000C90129833A834B835C83BDDF29813A813D
:1002E000C90160E177E2B7D6092E000CAA0BBB0B5F
:1002F000A7019601281B390B4A0B5B0BDA01C901D8
:1003000031F469E271E08BE191E03DD701C0A3DFF8
:1003100069E271E08AE090E00F900F900F900F90EB
:10032000DF91CF91FF90EF90DF90CF90F4C685B52D
:10033000856085BD80916E00816080936E00259AF6
:10034000559A2D9A7894F7DE69E271E080E091E0A9
:100350004CD52FEF8DE399E4215080409040E1F798
:1003600000C0000069E271E082E690E00CD778946A
:100370002BDF52D669E271E089E690E004D72FEFD7
:1003800089E698E1215080409040E1F700C00000EC
:10039000EBD552D6EC0169E271E080E291E0F3D650
:1003A000BE0180E090E083DF69E271E08AE090E0E6
:1003B000B2D6E5CF292F33272230310571F0233013
:1003C000310581F021303105A1F482E190E02AEE7F
:1003D00030E0FA013183208308958EE390E02CEA27
:1003E00030E0F7CF99278130910571F038F002970E
:1003F00071F090E080E030E020E0EBCFE8EAF0E060
:10040000849190E09F01E5CFEEE8F0E0F9CFE4E7DA
:10041000F0E0F6CFFC0180914201909143018617F4
:100420009707A0F06115710529F49091E8009E7777
:100430009093E80090E06115710551F4911108C0A6
:100440008091E80082FF32C080E00895BC01F2CFC5
:1004500080913B018823B1F18530B1F18091E800B2
:1004600083FD2EC08091E80082FDEACF8091E800F4
:1004700080FFE1CF2091F20030E06115710519F0A5
:100480002830310558F091E02830310509F090E02E
:100490002091E8002E772093E800CDCF81918093C2
:1004A000F100615071092F5F3F4FE7CF80913B0111
:1004B000882341F0853041F08091E80083FFC0CF70
:1004C00081E0089582E0089583E00895FC01809121
:1004D00042019091430186179707A0F061157105BD
:1004E00029F48091E8008E778093E80090E0611510
:1004F000710551F4911108C08091E80082FF33C06A
:1005000080E00895BC01F2CF80913B018823B9F1CE
:100510008530B9F18091E80083FD2FC08091E8001B
:1005200082FDEACF8091E80080FFE1CF2091F200C8
:1005300030E06115710519F02830310558F091E06F
:100540002830310509F090E08091E8008E778093A3
:10055000E800CDCF84918093F1003196615071090C
:100560002F5F3F4FE6CF80913B01882341F08530DC
:1005700041F08091E80083FFBFCF81E0089582E0E1
:10058000089583E00895982F953028F08F70809318
:10059000E90081E008959093E900242F762F50E040
:1005A000981731F07091EC002091ED005091F0001F
:1005B00021FD02C09F5FE8CF3091EB003E7F30937A
:1005C000EB003091ED003D7F3093ED003091EB007A
:1005D00031603093EB007093EC002093ED0050936A
:1005E000F0002091EE0027FDE5CF80E008950F9305
:1005F0001F93CF93DF93062FEC0110E0101302C07E
:1006000081E00FC02881211103C01F5F2596F6CF1E
:100610009C81A981BA816B81822F8F70853030F0E7
:1006200080E0DF91CF911F910F91089542E09230C9
:1006300008F046E0E8E0F0E090E0EA17FB0778F029
:100640009295907F492B6295660F660F607C221F02
:100650002227221F622B97DF8111D7CFE1CF9F5F27
:10066000EE0FFF1FEACF80913C0187FF13C08091FE
:10067000E80082FF06C08091E8008B778093E80055
:1006800004C080913B018111F2CF089580913B011C
:100690008823D9F38091E80080FFF8CF8091E800AB
:1006A0008E77ECCF2091E4003091E50085E69091C3
:1006B000EC0090FF06C09091E80090FF06C080E03B
:1006C00008959091E80092FDFACF90913B01992313
:1006D00091F0953091F09091EB0095FD10C0409114
:1006E000E4005091E5002417350709F381509A0181
:1006F000F1F684E0089582E0089583E0089581E0B2
:10070000089540D042D08091D8008F778093D80050
:100710008091D80080688093D8008091D8008F7D28
:100720008093D80019BC82E089BD09B400FEFDCFDA
:1007300010923B011092370110923901109238014A
:1007400042E060E080E01FDF8091E1008E7F8093D7
:10075000E1008091E20081608093E2008091E200FC
:1007600088608093E2008091E0008E7F8093E000BB
:100770000895E3E6F0E080818E7F808381E08093BE
:100780003A01BFCF1092E20008951092E10008955F
:100790001F920F920FB60F9211242F933F934F93F6
:1007A0005F936F937F938F939F93AF93BF93EF93D9
:1007B000FF938091E10082FF0AC08091E20082FFF6
:1007C00006C08091E1008B7F8093E10020D2809170
:1007D000E10080FF17C08091E20080FF13C080918C
:1007E000E2008E7F8093E2008091E200806180933E
:1007F000E2008091D80080628093D80019BC1092EA
:100800003B01C6DC8091E10084FF27C08091E200BB
:1008100084FF23C019BC82E089BD09B400FEFDCF6E
:100820008091D8008F7D8093D8008091E1008F7EE9
:100830008093E1008091E2008F7E8093E2008091BE
:10084000E20081608093E20080913701882309F4FF
:1008500040C084E080933B0186DC8091E10083FF0F
:1008600027C08091E20083FF23C08091E100877F51
:100870008093E10082E080933B01109237018091E8
:10088000E1008E7F8093E1008091E2008E7F809373
:10089000E2008091E20080618093E20042E060E04B
:1008A00080E071DE8091F00088608093F000AFD12D
:1008B000FF91EF91BF91AF919F918F917F916F9138
:1008C0005F914F913F912F910F900FBE0F901F900E
:1008D00018958091E30087FD02C081E0BBCF83E0E3
:1008E000B9CF1F920F920FB60F9211242F933F93FF
:1008F0004F935F936F937F938F939F93AF93BF9328
:10090000CF93EF93FF93C091E900CF708091EC00FB
:100910001092E9008091F000877F8093F000789436
:100920001BD01092E9008091F00088608093F00065
:10093000C093E900FF91EF91CF91BF91AF919F914B
:100940008F917F916F915F914F913F912F910F9078
:100950000FBE0F901F9018951F93CF93DF93CDB7C5
:10096000DEB7AA970FB6F894DEBF0FBECDBFECE39B
:10097000F1E08091F100819321E0E434F207C9F7BE
:100980001FDC8091E80083FF10C080913C019091B2
:100990003D01953009F4D8C000F5913009F48BC0C1
:1009A00008F461C0933009F486C08091E80083FFA9
:1009B0000AC08091E800877F8093E8008091EB0077
:1009C00080628093EB00AA960FB6F894DEBF0FBE4C
:1009D000CDBFDF91CF911F910895983009F4ECC0FD
:1009E000993009F4F6C0963001F780588230E8F665
:1009F00080913E0190913F018C3D23E0920709F0E8
:100A0000C6C083E08A838AE289834FB7F894DE0107
:100A1000139620E03EE051E2E32FF0E050935700C0
:100A2000E49120FF03C0E295EF703F5FEF708E2FDF
:100A300090E0EA3008F4A9C0C7968D939D932F5F8C
:100A4000243151F74FBF8091E800877F8093E80001
:100A50006AE270E0CE010196DDDC8091E8008B77E0
:100A60008093E800A2CF803899F0823809F09DCFBA
:100A7000809140018F70853008F097CF8093E90016
:100A80008091EB0085FB882780F91092E90006C071
:100A90008091380190913901911182609091E80024
:100AA000977F9093E8008093F1001092F10080917D
:100AB000E8008E7732C0282F2D7F09F076CF88236B
:100AC000E9F0823009F071CF80913E01811120C0A0
:100AD000809140018F702FEF280F243008F065CFF0
:100AE0008093E9002091EB0020FF12C09330C9F4FD
:100AF0008091EB0080628093EB000AC080913E0100
:100B0000813009F052CF933009F080E080933901B1
:100B10001092E9008091E800877F8093E800A3DDD0
:100B200044CF9091EB0090619093EB0021E030E096
:100B300001C0220F8A95EAF72093EA001092EA009A
:100B40008091EB008860D7CF81112FCF10913E01AB
:100B50001F778091E3008078812B8093E300809160
:100B6000E800877F8093E8007EDD8091E80080FFC9
:100B7000FCCF8091E30080688093E30083E0111153
:100B800001C082E080933B0110CFC09656CF6091A8
:100B9000400170914101AE014F5F5F4F0BDCBC0122
:100BA000892B09F402CF9091E800977F9093E80099
:100BB00089819A818BDC51CF803809F0F6CE809103
:100BC000E800877F8093E800809137018093F100EF
:100BD0006ECF8111EACE90913E01923008F0E5CEC1
:100BE0008091E800877F8093E800909337013BDD98
:100BF00080913701882329F084E080933B01DDDA7E
:100C0000D4CE8091E30087FDF7CF81E0F6CF089541
:100C1000CF9380913B01882391F0C091E900CF7080
:100C20008091EC0080FD0DC080E0C82B1092E9009F
:100C30008091E80083FD90DECF70C093E900CF91F2
:100C4000089580E8F2CFCF93DF93EC01FC0170961A
:100C50008BE0DF011D928A95E9F782E08C8389871A
:100C600083E08E8761E0CE010196C1DC882361F0CC
:100C700061E0CE010696BBDC882331F061E0CE0155
:100C80000B96DF91CF91B3CC80E0DF91CF910895A7
:100C9000CF93C62F20913B012430F9F4FC01448905
:100CA000558966897789452B462B472BB1F0818181
:100CB0008F708093E9008091E80085FF05C0C093A4
:100CC000F10080E0CF9108958091E8008E778093C5
:100CD000E800E8DC882399F3F5CF82E0F3CFFB014D
:100CE000682F84859585D4DF21E030E0811102C032
:100CF00030E020E088279927821B930B08952091EC
:100D00003B01243029F5FC0144895589668977899E
:100D1000452B462B472BE1F081818F708093E900B2
:100D20008091F200811102C080E008959091E80066
:100D30008091E8008E778093E80095FDF5CFB2DCD6
:100D4000811107C09091E8009E779093E800089584
:100D500082E0089520913B01243089F4FC0144890C
:100D6000558966897789452B462B472B41F0218190
:100D70002F702093E9002091E80020FDC0CF089556
:100D800020913B01243019F08FEF9FEF0895FC0173
:100D90004489558966897789452B462B472BA1F3D2
:100DA00086818F708093E9008091E80082FFECCF0C
:100DB0008091F200882369F08091F10090E0209109
:100DC000F200211105C02091E8002B772093E80064
:100DD00008958FEF9FEFF3CFFC0184859585D0DFD9
:100DE00097FF02C08EEF9FEF0895FB012EE0DB011D
:100DF0001D922A95E9F723E023832FE636E0318719
:100E000020872CEE36E033872287958784870895E4
:100E10000895CF93DF93EC018091E80083FF10C029
:100E2000288180914001909141012817190641F4D1
:100E300080913D018132E1F030F4803209F44DC0FF
:100E4000DF91CF910895823209F479C08332C1F7DE
:100E500080913C018132A1F78091E800877F8093E7
:100E6000E80001DC60913E01CE01DF91CF91D0CF4F
:100E700080913C01813A21F78091E800877F80933F
:100E8000E8008091E80080FFFCCF8C899D89AE89C5
:100E9000BF898093F100492F5A2F6B2F77274093FA
:100EA000F100AD01662777274093F1008B2F99273A
:100EB000AA27BB278093F100888D8093F100898D4C
:100EC0008093F1008A8D8093F1008091E8008E7705
:100ED0008093E800DF91CF91C6CB80913C018132B5
:100EE00009F0AECF8091E800877F8093E800809181
:100EF000E80082FF1FC03091F1002091F100909135
:100F0000F1008091F1003C8B2D8B9E8B8F8B80911B
:100F1000F100888F8091F100898F8091F1008A8F94
:100F20008091E8008B778093E8009DDBCE01DF9114
:100F3000CF916ECF80913B018111D9CF81CF80912C
:100F40003C01813209F07CCF8091E800877F80935B
:100F5000E80089DB80913E0190913F01998B888B5D
:100F6000CE01DF91CF912FC940E050E06DE070E0FD
:100F700082E090E030D92FEF80E792E0215080406E
:100F80009040E1F700C0000040E050E061E170E017
:100F900089E290E020D940E050E062E670E089E22A
:100FA00090E019D940E050E060E070E089E290E024
:100FB00012D940E050E062E070E089E290E00BD9A5
:100FC00040E050E061E070E089E290E004D940E068
:100FD00050E062E070E089E290E0FDD840E050E04F
:100FE00063E070E089E290E0F6D82FEF8DE399E4BA
:100FF000215080409040E1F700C0000040E050E008
:1010000064E070E088E290E0E6D840E050E060E024
:1010100070E082E090E0DFC840E050E060E070E027
:1010200080E090E0D8D8813521F02FEF280F2E3FB7
:1010300010F09927089508952D981EBC0DB407FE51
:10104000FDCF8EB590E01EBC0DB407FEFDCF2EB5D2
:101050002D9A922B08950024552704C0080E591F7D
:10106000880F991F009729F076956795B8F3710559
:10107000B9F7802D952F0895A1E21A2EAA1BBB1B4C
:10108000FD010DC0AA1FBB1FEE1FFF1FA217B30754
:10109000E407F50720F0A21BB30BE40BF50B661F6A
:1010A000771F881F991F1A9469F76095709580952E
:1010B00090959B01AC01BD01CF01089545325105CA
:1010C00018F4423008F004C0FB011082CB010895EF
:1010D000BB274A3031F4992322F4BDE290958195E3
:1010E0009F4F01C0BB27FB015527AA27880F991FD7
:1010F000AA1FA41710F0A41B83955051B9F7A05D47
:10110000AA3308F0A95DA193009779F7B111B193C3
:101110001192CB0161C00F931F93CF93DF93FB011B
:10112000238121FD03C08FEF9FEF28C022FF16C04F
:1011300046815781248135814217530744F4A081A9
:10114000B1819D012F5F3F4F318320838C93268196
:1011500037812F5F3F4F3783268310C0EB01092F64
:10116000182F0084F185E02D0995892BE1F68E81F9
:101170009F8101969F838E83812F902FDF91CF9146
:101180001F910F910895EF92FF920F931F93CF93AA
:10119000DF93DB0113962C9121FF18C08B017C019A
:1011A000D0E0C0E0F70181917F01882361F0D80190
:1011B0001896ED91FC911997B8010995892B91F337
:1011C000DFEFCFEFEFCF8D2F9C2F02C08FEF9FEF80
:1011D000CDB7DEB7E6E01CC0DC01FC01672F7191E2
:1011E0007723E1F7329704C07C916D93708362910D
:1011F000AE17BF07C8F308952A88398848885F84E6
:101200006E847D848C849B84AA84B984C884DF80A6
:10121000EE80FD800C811B81AA81B981CE0FD11D8A
:101220000FB6F894DEBF0FBECDBFED010895F89460
:02123000FFCFEE
:101232000083100000010410000001820800000178
:1012420000000000000000000000003030303000DC
:08125200446174613A200000C0
:00000001FF
