:100000007DC0000096C0000094C0000092C00000B7
:1000100090C000008EC000008CC000008AC00000AC
:1000200088C0000086C0000084C0000083C30000B8
:100030002AC400007EC000007CC000007AC000001E
:1000400078C0000076C0000074C0000072C00000DC
:1000500070C00000E3C000006CC000006AC0000077
:1000600068C0000066C0000064C0000062C00000FC
:1000700060C00000180355005400200052004F00DB
:1000800043004B0045005400520059000000180383
:1000900055005400200052004F0043004B00450023
:1000A00054005200590000000403090409023E00F4
:1000B000020100C03209040000010202010005240F
:1000C000001001042402060524060001070582032E
:1000D0000800FF09040100020A00000007050402ED
:1000E000100005070583021000051201100102002F
:1000F0000008EB03442001000102DC0111241FBEB3
:10010000CFEFD4E0DEBFCDBF11E0A0E0B1E0ECEE78
:10011000FFE002C005900D92AC31B107D9F721E0A4
:10012000ACE1B1E001C01D92A833B207E1F7A6D05F
:100130005BC766CF84B7877F84BF0FB6F894A89556
:1001400080916000886180936000109260000FBE13
:1001500080E890E00FB6F89480936100909361007E
:100160000FBED9C2589A2FEF80E792E0215080400D
:100170009040E1F700C0000058982FEF80E792E030
:10018000215080409040E1F700C000000895EACF80
:1001900080E091E02AC580E091E02DC60895CF93DC
:1001A000DF931F92CDB7DEB78983BE016F5F7F4FAC
:1001B00080E091E03FD50F90DF91CF91089584B119
:1001C000876084B98CB581658CBD089528984130CD
:1001D000510559F48EBD0DB407FEFDCF6EBD0DB4B3
:1001E00007FEFDCF289A8EB508958064F3CF413085
:1001F000510551F49EBD0DB407FEFDCF8EBD0DB46B
:1002000007FEFDCF8EB5089590689EBD0DB407FE24
:10021000FDCF8EBD0DB407FEFDCFF4CF1F920F9220
:100220000FB60F9211242F933F934F935F936F93C9
:100230007F938F939F93AF93BF93EF93FF93F89424
:1002400080911C018F5F80931C0180E091E08AD532
:1002500080E091E071D5AED47894FF91EF91BF9199
:10026000AF919F918F917F916F915F914F913F914E
:100270002F910F900FBE0F901F90189585B5856038
:1002800085BD80916E00816080936E00209A509AA7
:10029000289A78944FDF6DE171E080E091E097D586
:1002A00078948DDF63D62FEF89E698E12150804066
:1002B0009040E1F700C0000049D671DFF4CF292F4C
:1002C00033272230310571F02330310581F02130A0
:1002D0003105A1F482E190E02AEE30E0FA013183A9
:1002E000208308958EE390E02CEA30E0F7CF992741
:1002F0008130910571F038F0029771F090E080E064
:1003000030E020E0EBCFE8EAF0E0849190E09F015C
:10031000E5CFEEE8F0E0F9CFE4E7F0E0F6CFAF921A
:10032000BF92CF92DF92FF920F931F93CF93DF93F1
:100330006C01EB018A0188D1F82E811123C00115CF
:10034000110539F0F80180819181C81BD90BC80EC5
:10035000D91EB12CA12C2097A9F08091E80085FD31
:1003600021C08091E8008E778093E8000115110587
:10037000A1F0F80180819181A80EB91EB182A082FE
:1003800085E0F82E8F2DDF91CF911F910F91FF9077
:10039000DF90CF90BF90AF90089556D18823D9F2C7
:1003A000F82EF0CFF60181916F018093F100219733
:1003B000FFEFAF1ABF0ACFCFFC01809136019091B9
:1003C000370186179707A0F06115710529F4909100
:1003D000E8009E779093E80090E06115710551F474
:1003E000911108C08091E80082FF32C080E008953A
:1003F000BC01F2CF80912F018823B1F18530B1F19A
:100400008091E80083FD2EC08091E80082FDEACF54
:100410008091E80080FFE1CF2091F20030E061158B
:10042000710519F02830310558F091E02830310578
:1004300009F090E02091E8002E772093E800CDCFDE
:1004400081918093F100615071092F5F3F4FE7CF99
:1004500080912F01882341F0853041F08091E800A0
:1004600083FFC0CF81E0089582E0089583E008957E
:10047000FC01809136019091370186179707A0F013
:100480006115710529F48091E8008E778093E8006A
:1004900090E06115710551F4911108C08091E80058
:1004A00082FF33C080E00895BC01F2CF80912F011C
:1004B0008823B9F18530B9F18091E80083FD2FC020
:1004C0008091E80082FDEACF8091E80080FFE1CFD3
:1004D0002091F20030E06115710519F028303105E6
:1004E00058F091E02830310509F090E08091E80063
:1004F0008E778093E800CDCF84918093F100319680
:10050000615071092F5F3F4FE6CF80912F01882303
:1005100041F0853041F08091E80083FFBFCF81E05A
:10052000089582E0089583E00895982F953028F08B
:100530008F708093E90081E008959093E900242F63
:10054000762F50E0981731F07091EC002091ED007B
:100550005091F00021FD02C09F5FE8CF3091EB0089
:100560003E7F3093EB003091ED003D7F3093ED0006
:100570003091EB0031603093EB007093EC002093EE
:10058000ED005093F0002091EE0027FDE5CF80E0D4
:1005900008950F931F93CF93DF93062FEC0110E084
:1005A000101302C081E00FC02881211103C01F5F1A
:1005B0002596F6CF9C81A981BA816B81822F8F709D
:1005C000853030F080E0DF91CF911F910F91089539
:1005D00042E0923008F046E0E8E0F0E090E0EA1710
:1005E000FB0778F09295907F492B6295660F660F16
:1005F000607C221F2227221F622B97DF8111D7CF19
:10060000E1CF9F5FEE0FFF1FEACF8091300187FFA0
:1006100013C08091E80082FF06C08091E8008B77CC
:100620008093E80004C080912F018111F2CF0895DA
:1006300080912F018823D9F38091E80080FFF8CFC3
:100640008091E8008E77ECCF2091E4003091E500B6
:1006500085E69091EC0090FF06C09091E80090FF35
:1006600006C080E008959091E80092FDFACF909145
:100670002F01992391F0953091F09091EB0095FD29
:1006800010C04091E4005091E5002417350709F3AC
:1006900081509A01F1F684E0089582E0089583E0A4
:1006A000089581E0089540D042D08091D8008F779E
:1006B0008093D8008091D80080688093D800809182
:1006C000D8008F7D8093D80019BC82E089BD09B421
:1006D00000FEFDCF10922F0110922B0110922D01E0
:1006E00010922C0142E060E080E01FDF8091E10089
:1006F0008E7F8093E1008091E20081608093E20030
:100700008091E20088608093E2008091E0008E7F1B
:100710008093E0000895E3E6F0E080818E7F80839F
:1007200081E080932E01BFCF1092E20008951092D5
:10073000E10008951F920F920FB60F9211242F938C
:100740003F934F935F936F937F938F939F93AF9359
:10075000BF93EF93FF938091E10082FF0AC08091E5
:10076000E20082FF06C08091E1008B7F8093E10070
:1007700020D28091E10080FF17C08091E20080FFCD
:1007800013C08091E2008E7F8093E2008091E200AE
:1007900080618093E2008091D80080628093D800CD
:1007A00019BC10922F01F3DC8091E10084FF27C077
:1007B0008091E20084FF23C019BC82E089BD09B4A6
:1007C00000FEFDCF8091D8008F7D8093D80080916E
:1007D000E1008F7E8093E1008091E2008F7E809324
:1007E000E2008091E20081608093E20080912B0121
:1007F000882309F440C084E080932F01B3DC80910A
:10080000E10083FF27C08091E20083FF23C0809135
:10081000E100877F8093E10082E080932F011092B6
:100820002B018091E1008E7F8093E1008091E200B6
:100830008E7F8093E2008091E20080618093E200ED
:1008400042E060E080E071DE8091F000886080939B
:10085000F000AFD1FF91EF91BF91AF919F918F9138
:100860007F916F915F914F913F912F910F900FBEAC
:100870000F901F9018958091E30087FD02C081E0E2
:10088000BBCF83E0B9CF1F920F920FB60F92112406
:100890002F933F934F935F936F937F938F939F9388
:1008A000AF93BF93CF93EF93FF93C091E900CF70C5
:1008B0008091EC001092E9008091F000877F809396
:1008C000F00078941BD01092E9008091F0008860CD
:1008D0008093F000C093E900FF91EF91CF91BF9119
:1008E000AF919F918F917F916F915F914F913F91C8
:1008F0002F910F900FBE0F901F9018951F93CF93BD
:10090000DF93CDB7DEB7AA970FB6F894DEBF0FBE60
:10091000CDBFE0E3F1E08091F100819321E0E83385
:10092000F207C9F738DC8091E80083FF10C080919E
:10093000300190913101953009F4D8C000F5913023
:1009400009F48BC008F461C0933009F486C080912B
:10095000E80083FF0AC08091E800877F8093E80069
:100960008091EB0080628093EB00AA960FB6F8941A
:10097000DEBF0FBECDBFDF91CF911F91089598309C
:1009800009F4ECC0993009F4F6C0963001F78058AC
:100990008230E8F680913201909133018C3D23E062
:1009A000920709F0C6C083E08A838AE289834FB741
:1009B000F894DE01139620E03EE051E2E32FF0E0F0
:1009C00050935700E49120FF03C0E295EF703F5F22
:1009D000EF708E2F90E0EA3008F4A9C0C7968D938F
:1009E0009D932F5F243151F74FBF8091E800877F9F
:1009F0008093E8006AE270E0CE010196DDDC809130
:100A0000E8008B778093E800A2CF803899F0823895
:100A100009F09DCF809134018F70853008F097CF19
:100A20008093E9008091EB0085FB882780F9109284
:100A3000E90006C080912C0190912D0191118260F6
:100A40009091E800977F9093E8008093F1001092D6
:100A5000F1008091E8008E7732C0282F2D7F09F0B9
:100A600076CF8823E9F0823009F071CF809132018E
:100A7000811120C0809134018F702FEF280F243016
:100A800008F065CF8093E9002091EB0020FF12C0B1
:100A90009330C9F48091EB0080628093EB000AC030
:100AA00080913201813009F052CF933009F080E01B
:100AB00080932D011092E9008091E800877F809358
:100AC000E800A3DD44CF9091EB0090619093EB00A0
:100AD00021E030E001C0220F8A95EAF72093EA0076
:100AE0001092EA008091EB008860D7CF81112FCF60
:100AF000109132011F778091E3008078812B8093E1
:100B0000E3008091E800877F8093E8007EDD80919C
:100B1000E80080FFFCCF8091E30080688093E300D1
:100B200083E0111101C082E080932F0110CFC096A5
:100B300056CF6091340170913501AE014F5F5F4F28
:100B4000BEDBBC01892B09F402CF9091E800977FAE
:100B50009093E80089819A818BDC51CF803809F02D
:100B6000F6CE8091E800877F8093E80080912B018A
:100B70008093F1006ECF8111EACE909132019230D4
:100B800008F0E5CE8091E800877F8093E80090939D
:100B90002B013BDD80912B01882329F084E0809399
:100BA0002F01F6DAD4CE8091E30087FDF7CF81E004
:100BB000F6CF0895CF9380912F01882391F0C091B3
:100BC000E900CF708091EC0080FD0DC080E0C82B63
:100BD0001092E9008091E80083FD90DECF70C09311
:100BE000E900CF91089580E8F2CFCF93DF93EC0135
:100BF000FC0170968BE0DF011D928A95E9F782E097
:100C00008C83898783E08E8761E0CE010196C1DC09
:100C1000882361F061E0CE010696BBDC882331F0C9
:100C200061E0CE010B96DF91CF91B3CC80E0DF91F4
:100C3000CF910895DB0120912F012430C9F4FC01EC
:100C40004489558966897789452B462B472B81F046
:100C500081818F708093E900FD0101900020E9F708
:100C60003197BF016A1B7B0B50E040E0CD0157CBB1
:100C700082E00895CF93C62F20912F012430F9F4FC
:100C8000FC014489558966897789452B462B472B7A
:100C9000B1F081818F708093E9008091E80085FF39
:100CA00005C0C093F10080E0CF9108958091E800E5
:100CB0008E778093E800C8DC882399F3F5CF82E033
:100CC000F3CFFB01682F84859585D4DF21E030E0E8
:100CD000811102C030E020E088279927821B930B06
:100CE000089520912F01243029F5FC01448955896C
:100CF00066897789452B462B472BE1F081818F70E0
:100D00008093E9008091F200811102C080E0089593
:100D10009091E8008091E8008E778093E80095FD3F
:100D2000F5CF92DC811107C09091E8009E779093F7
:100D3000E800089582E0089520912F01243089F47D
:100D4000FC014489558966897789452B462B472BB9
:100D500041F021812F702093E9002091E80020FDCF
:100D6000C0CF089520912F01243019F08FEF9FEF0D
:100D70000895FC014489558966897789452B462B5E
:100D8000472BA1F386818F708093E9008091E80062
:100D900082FFECCF8091F200882369F08091F1000E
:100DA00090E02091F200211105C02091E8002B77FE
:100DB0002093E80008958FEF9FEFF3CFFC01848527
:100DC0009585D0DF97FF02C08EEF9FEF0895FB015E
:100DD0002EE0DB011D922A95E9F723E0238321E62B
:100DE00036E0318720872EED36E0338722879587DE
:100DF000848708950895CF93DF93EC018091E800F4
:100E000083FF10C02881809134019091350128170B
:100E1000190641F4809131018132E1F030F48032E1
:100E200009F44DC0DF91CF910895823209F479C061
:100E30008332C1F7809130018132A1F78091E800BF
:100E4000877F8093E800E1DB60913201CE01DF9182
:100E5000CF91D0CF80913001813A21F78091E80085
:100E6000877F8093E8008091E80080FFFCCF8C8929
:100E70009D89AE89BF898093F100492F5A2F6B2F2E
:100E800077274093F100AD01662777274093F10063
:100E90008B2F9927AA27BB278093F100888D8093F9
:100EA000F100898D8093F1008A8D8093F10080910B
:100EB000E8008E778093E800DF91CF91A6CB8091F8
:100EC0003001813209F0AECF8091E800877F8093B6
:100ED000E8008091E80082FF1FC03091F10020916E
:100EE000F1009091F1008091F1003C8B2D8B9E8B55
:100EF0008F8B8091F100888F8091F100898F809194
:100F0000F1008A8F8091E8008B778093E8007DDB89
:100F1000CE01DF91CF916ECF80912F018111D9CF7A
:100F200081CF80913001813209F07CCF8091E8003F
:100F3000877F8093E80069DB8091320190913301D3
:100F4000998B888BCE01DF91CF9128C941E050E089
:100F500070E060E090E080E039D92FEF280F81E069
:100F600090E02E3F10F090E080E00895289A8FECFA
:100F700097E00197F1F700C000001C9930C050E0E5
:100F800040E060E870E082E090E020D98FE697E1F1
:100F90000197F1F700C0000050E040E070E060E031
:100FA00082E090E013D950E040E064E070E080E13E
:100FB0009FE01DD950E040E070E060E081E19FE0FB
:100FC00016D950E040E070E060E084E891E00FD98D
:100FD00050E040E06CE070E082E090E008C98FE90A
:0C0FE0009FE00197F1F7C7CFF894FFCF16
:100FEC0000831000000104100000018208000001C1
:0C0FFC00000000000000000000000000E9
:00000001FF
