:100000007DC0000097C0000095C0000093C00000B4
:1000100091C000008FC000008DC000008BC00000A8
:1000200089C0000087C0000085C00000FEC300003A
:10003000A5C400007FC000007DC000007BC00000A0
:1000400079C0000077C0000075C0000073C00000D8
:1000500071C00000D8C000006DC000006BC000007F
:1000600069C0000067C0000065C0000063C00000F8
:1000700061C00000180355005400200052004F00DA
:1000800043004B0045005400520059000000180383
:1000900055005400200052004F0043004B00450023
:1000A00054005200590000000403090409023E00F4
:1000B000020100C03209040000010202010005240F
:1000C000001001042402060524060001070582032E
:1000D0000800FF09040100020A00000007050402ED
:1000E000100005070583021000051201100102002F
:1000F0000008EB03442001000102DC0111241FBEB3
:10010000CFEFD4E0DEBFCDBF11E0A0E0B1E0EAE97F
:10011000F2E102C005900D92AE32B107D9F721E0AD
:10012000AEE2B1E001C01D92AE34B207E1F722D1D8
:100130000C944B0965CF84B7877F84BF0FB6F894C2
:10014000A8958091600088618093600010926000A3
:100150000FBE80E890E00FB6F89480936100909312
:1001600061000FBE53C3589A2FEF80E792E02150F1
:1001700080409040E1F700C0000058982FEF80E7E2
:1001800092E0215080409040E1F700C000000895C7
:10019000EACF80E091E0A4C580E091E087C60895B1
:1001A00084B1876084B98CB581658CBD08952D9824
:1001B000452B59F48EBD0DB407FEFDCF6EBD0DB4B9
:1001C00007FEFDCF2D9A8EB508958064F3CF2D984C
:1001D000452B79F49EBD0DB407FEFDCF8EBD0DB449
:1001E00007FEFDCF6EBD0DB407FEFDCF2D9A8EB577
:1001F000089590689EBD0DB407FEFDCF8EBD0DB471
:1002000007FEFDCFEFCF1F920F920FB60F92112472
:100210002F933F934F935F936F937F938F939F930E
:10022000AF93BF93EF93FF93F894809130018F5F6A
:100230008093300180E091E0F0D580E091E0D7D567
:1002400034D57894FF91EF91BF91AF919F918F91A9
:100250007F916F915F914F913F912F910F900FBEC2
:100260000F901F901895EAECF0E080818660808303
:10027000E9ECF0E0808188618083ECECF0E0808143
:100280008363808308959091C80095FFFCCF80938D
:10029000CE0008958091C80087FFFCCF8091CE00EA
:1002A0000895EF92FF920F931F93CF93DF9300D0A7
:1002B00000D01F92CDB7DEB78E010F5F1F4F25E034
:1002C000F80111922A95E9F74AE050E0B80162D7A7
:1002D0007E01F6E0EF0EF11CF80181918F01811192
:1002E000D2DF0E151F05C1F70F900F900F900F90E2
:1002F0000F90DF91CF911F910F91FF90EF90089594
:100300008F929F92AF92BF92CF92DF92EF92FF9225
:100310006B017C0120E137E240E050E019D7490150
:10032000C901BFDFC40160E177E201D7092E000CEB
:10033000AA0BBB0BA7019601281B390B4A0B5B0BC1
:10034000DA01C9010097A105B10591F480E39BDFB3
:1003500080E399DF80E397DF80E395DF8AE0FF9019
:10036000EF90DF90CF90BF90AF909F908F908BCF0A
:1003700098DFF4CF85B5856085BD80916E00816082
:1003800080936E00259A559A2D9A7894D4DE6BDF6F
:1003900063E371E080E091E075D52FEF8DE399E4A0
:1003A000215080409040E1F700C0000063E371E01D
:1003B00082E690E01CD77894F3DE5ED680916500EB
:1003C0008160809365008091640080628093640006
:1003D0008091640088608093640089E554DF11D6C1
:1003E00063E371E0892B71F189E690E000D72FEF8C
:1003F00089E698E1215080409040E1F700C000007C
:1004000050E040E064E085E2D2DE2FEF81EE94E040
:10041000215080409040E1F700C0000050E040E0F3
:1004200065E082E0C4DE36DF8337E9F741E050E083
:1004300060E08CE1BCDEC82FF7D562DF8C2F90E046
:1004400030DFF1CF80E291E0D2D616D6C8CF292F87
:1004500033272230310571F02330310581F021300E
:100460003105A1F482E190E02AEE30E0FA01318317
:10047000208308958EE390E02CEA30E0F7CF9927AF
:100480008130910571F038F0029771F090E080E0D2
:1004900030E020E0EBCFE8EAF0E0849190E09F01CB
:1004A000E5CFEEE8F0E0F9CFE4E7F0E0F6CFFC01CD
:1004B00080914C0190914D0186179707A0F061152E
:1004C000710529F49091E8009E779093E80090E000
:1004D0006115710551F4911108C08091E80082FF07
:1004E00032C080E00895BC01F2CF8091450188239D
:1004F000B1F18530B1F18091E80083FD2EC080918B
:10050000E80082FDEACF8091E80080FFE1CF2091F2
:10051000F20030E06115710519F02830310558F00E
:1005200091E02830310509F090E02091E8002E7725
:100530002093E800CDCF81918093F1006150710943
:100540002F5F3F4FE7CF80914501882341F08530F1
:1005500041F08091E80083FFC0CF81E0089582E000
:10056000089583E00895FC0180914C0190914D0124
:1005700086179707A0F06115710529F48091E800AE
:100580008E778093E80090E06115710551F4911128
:1005900008C08091E80082FF33C080E00895BC016C
:1005A000F2CF809145018823B9F18530B9F180916E
:1005B000E80083FD2FC08091E80082FDEACF8091A2
:1005C000E80080FFE1CF2091F20030E06115710575
:1005D00019F02830310558F091E02830310509F044
:1005E00090E08091E8008E778093E800CDCF8491F1
:1005F0008093F1003196615071092F5F3F4FE6CF34
:1006000080914501882341F0853041F08091E800D8
:1006100083FFBFCF81E0089582E0089583E00895CD
:10062000982F953028F08F708093E90081E008952D
:100630009093E900242F762F50E0981731F07091B5
:10064000EC002091ED005091F00021FD02C09F5F71
:10065000E8CF3091EB003E7F3093EB003091ED001E
:100660003D7F3093ED003091EB0031603093EB0033
:100670007093EC002093ED005093F0002091EE0079
:1006800027FDE5CF80E008950F931F93CF93DF936D
:10069000062FEC0110E0101302C081E00FC028818A
:1006A000211103C01F5F2596F6CF9C81A981BA81D5
:1006B0006B81822F8F70853030F080E0DF91CF9199
:1006C0001F910F91089542E0923008F046E0E8E073
:1006D000F0E090E0EA17FB0778F09295907F492BC5
:1006E0006295660F660F607C221F2227221F622BF5
:1006F00097DF8111D7CFE1CF9F5FEE0FFF1FEACFCA
:100700008091460187FF13C08091E80082FF06C0F8
:100710008091E8008B778093E80004C080914501C8
:100720008111F2CF0895809145018823D9F38091FA
:10073000E80080FFF8CF8091E8008E77ECCF209121
:10074000E4003091E50085E69091EC0090FF06C052
:100750009091E80090FF06C080E008959091E80035
:1007600092FDFACF90914501992391F0953091F047
:100770009091EB0095FD10C04091E4005091E50090
:100780002417350709F381509A01F1F684E00895A2
:1007900082E0089583E0089581E0089540D042D03A
:1007A0008091D8008F778093D8008091D80080689E
:1007B0008093D8008091D8008F7D8093D80019BC99
:1007C00082E089BD09B400FEFDCF10924501109270
:1007D0004101109243011092420142E060E080E04A
:1007E0001FDF8091E1008E7F8093E1008091E20025
:1007F00081608093E2008091E20088608093E20053
:100800008091E0008E7F8093E0000895E3E6F0E0C1
:1008100080818E7F808381E080934401BFCF1092DE
:10082000E20008951092E10008951F920F920FB612
:100830000F9211242F933F934F935F936F937F9366
:100840008F939F93AF93BF93EF93FF938091E100BA
:1008500082FF0AC08091E20082FF06C08091E10021
:100860008B7F8093E10020D28091E10080FF17C050
:100870008091E20080FF13C08091E2008E7F809320
:10088000E2008091E20080618093E2008091D800D4
:1008900080628093D80019BC1092450179DC809168
:1008A000E10084FF27C08091E20084FF23C019BCCF
:1008B00082E089BD09B400FEFDCF8091D8008F7D14
:1008C0008093D8008091E1008F7E8093E100809139
:1008D000E2008F7E8093E2008091E200816080934D
:1008E000E20080914101882309F440C084E08093B4
:1008F000450139DC8091E10083FF27C08091E2004F
:1009000083FF23C08091E100877F8093E10082E034
:1009100080934501109241018091E1008E7F809388
:10092000E1008091E2008E7F8093E2008091E200FE
:1009300080618093E20042E060E080E071DE8091BF
:10094000F00088608093F000AFD1FF91EF91BF91EC
:10095000AF919F918F917F916F915F914F913F9157
:100960002F910F900FBE0F901F9018958091E3006C
:1009700087FD02C081E0BBCF83E0B9CF1F920F9209
:100980000FB60F9211242F933F934F935F936F9362
:100990007F938F939F93AF93BF93CF93EF93FF93E7
:1009A000C091E900CF708091EC001092E900809135
:1009B000F000877F8093F00078941BD01092E900BC
:1009C0008091F00088608093F000C093E900FF916F
:1009D000EF91CF91BF91AF919F918F917F916F9147
:1009E0005F914F913F912F910F900FBE0F901F90ED
:1009F00018951F93CF93DF93CDB7DEB7AA970FB6A5
:100A0000F894DEBF0FBECDBFE6E4F1E08091F100C7
:100A1000819321E0EE34F207C9F7BEDB8091E80054
:100A200083FF10C08091460190914701953009F4F1
:100A3000D8C000F5913009F48BC008F461C0933040
:100A400009F486C08091E80083FF0AC08091E80025
:100A5000877F8093E8008091EB0080628093EB00B9
:100A6000AA960FB6F894DEBF0FBECDBFDF91CF912F
:100A70001F910895983009F4ECC0993009F4F6C03C
:100A8000963001F780588230E8F6809148019091C5
:100A900049018C3D23E0920709F0C6C083E08A83B8
:100AA0008AE289834FB7F894DE01139620E03EE096
:100AB00051E2E32FF0E050935700E49120FF03C090
:100AC000E295EF703F5FEF708E2F90E0EA3008F410
:100AD000A9C0C7968D939D932F5F243151F74FBFC7
:100AE0008091E800877F8093E8006AE270E0CE01A1
:100AF0000196DDDC8091E8008B778093E800A2CF3F
:100B0000803899F0823809F09DCF80914A018F702A
:100B1000853008F097CF8093E9008091EB0085FB4A
:100B2000882780F91092E90006C0809142019091D7
:100B30004301911182609091E800977F9093E800C3
:100B40008093F1001092F1008091E8008E7732C01E
:100B5000282F2D7F09F076CF8823E9F0823009F025
:100B600071CF80914801811120C080914A018F701E
:100B70002FEF280F243008F065CF8093E9002091F3
:100B8000EB0020FF12C09330C9F48091EB0080622B
:100B90008093EB000AC080914801813009F052CF68
:100BA000933009F080E0809343011092E900809136
:100BB000E800877F8093E800A3DD44CF9091EB00AD
:100BC00090619093EB0021E030E001C0220F8A9504
:100BD000EAF72093EA001092EA008091EB00886027
:100BE000D7CF81112FCF109148011F778091E3005B
:100BF0008078812B8093E3008091E800877F809349
:100C0000E8007EDD8091E80080FFFCCF8091E3006A
:100C100080688093E30083E0111101C082E080933B
:100C2000450110CFC09656CF60914A0170914B019B
:100C3000AE014F5F5F4F0BDCBC01892B09F402CF83
:100C40009091E800977F9093E80089819A818BDCEE
:100C500051CF803809F0F6CE8091E800877F8093ED
:100C6000E800809141018093F1006ECF8111EACEBE
:100C700090914801923008F0E5CE8091E800877F9E
:100C80008093E800909341013BDD809141018823EE
:100C900029F084E0809345017CDAD4CE8091E30092
:100CA00087FDF7CF81E0F6CF0895CF93809145017E
:100CB000882391F0C091E900CF708091EC0080FD15
:100CC0000DC080E0C82B1092E9008091E80083FD00
:100CD00090DECF70C093E900CF91089580E8F2CF05
:100CE000CF93DF93EC01FC0170968BE0DF011D9246
:100CF0008A95E9F782E08C83898783E08E8761E0BB
:100D0000CE010196C1DC882361F061E0CE01069638
:100D1000BBDC882331F061E0CE010B96DF91CF91EF
:100D2000B3CC80E0DF91CF910895CF93C62F20916F
:100D300045012430F9F4FC01448955896689778995
:100D4000452B462B472BB1F081818F708093E900B2
:100D50008091E80085FF05C0C093F10080E0CF914D
:100D600008958091E8008E778093E800E8DC88237E
:100D700099F3F5CF82E0F3CFFB01682F8485958549
:100D8000D4DF21E030E0811102C030E020E088278C
:100D90009927821B930B089520914501243029F552
:100DA000FC014489558966897789452B462B472B59
:100DB000E1F081818F708093E9008091F2008111D0
:100DC00002C080E008959091E8008091E8008E775D
:100DD0008093E80095FDF5CFB2DC811107C09091BA
:100DE000E8009E779093E800089582E008952091AE
:100DF0004501243089F4FC01448955896689778945
:100E0000452B462B472B41F021812F702093E90081
:100E10002091E80020FDC0CF0895209145012430A5
:100E200019F08FEF9FEF0895FC0144895589668979
:100E30007789452B462B472BA1F386818F708093B2
:100E4000E9008091E80082FFECCF8091F2008823D6
:100E500069F08091F10090E02091F200211105C02D
:100E60002091E8002B772093E80008958FEF9FEF03
:100E7000F3CFFC0184859585D0DF97FF02C08EEF0C
:100E80009FEF0895FB012EE0DB011D922A95E9F703
:100E900023E023832CEB36E03187208729E337E0FA
:100EA000338722879587848708950895CF93DF93AA
:100EB000EC018091E80083FF10C0288180914A01F5
:100EC00090914B012817190641F480914701813216
:100ED000E1F030F4803209F44DC0DF91CF910895F4
:100EE000823209F479C08332C1F7809146018132A0
:100EF000A1F78091E800877F8093E80001DC609192
:100F00004801CE01DF91CF91D0CF80914601813A47
:100F100021F78091E800877F8093E8008091E800C6
:100F200080FFFCCF8C899D89AE89BF898093F100B9
:100F3000492F5A2F6B2F77274093F100AD01662779
:100F400077274093F1008B2F9927AA27BB278093FF
:100F5000F100888D8093F100898D8093F1008A8D56
:100F60008093F1008091E8008E778093E800DF9114
:100F7000CF91C6CB80914601813209F0AECF8091EE
:100F8000E800877F8093E8008091E80082FF1FC01F
:100F90003091F1002091F1009091F1008091F100E9
:100FA0003C8B2D8B9E8B8F8B8091F100888F809155
:100FB000F100898F8091F1008A8F8091E8008B7712
:100FC0008093E8009DDBCE01DF91CF916ECF8091C1
:100FD00045018111D9CF81CF80914601813209F03D
:100FE0007CCF8091E800877F8093E80089DB809147
:100FF000480190914901998B888BCE01DF91CF9167
:10100000CEC850E040E070E060E090E080E0CFD8F3
:10101000813521F081508E3F20F4089581E090E0E9
:10102000089590E080E008950F931F932D9880E736
:101030008EBD0DB407FEFDCF6EB5062F10E030E07B
:1010400020E082E08EBD0DB407FEFDCF8EB590E0AE
:10105000982F8827092E000CAA0BBB0BBC01CD01D1
:10106000602B712B822B932B1EBC0DB407FEFDCF82
:101070002D9A1F910F9108952D9A1D9BFECF50E040
:1010800040E060E870E082E090E091D82FEF80E7E8
:1010900092E0215080409040E1F700C0000050E015
:1010A00040E070E060E082E090E081D82FEF80E7E0
:1010B00092E0215080409040E1F700C0000050E0F5
:1010C00040E064E080E19FE082D88FEC97E00197F8
:1010D000F1F700C0000050E040E060E081E19FE0F7
:1010E00076D88FEC97E00197F1F700C0000050E050
:1010F00040E060E084E891E06AD88FEC97E00197E7
:10110000F1F700C000008FEC97E00197F1F700C005
:10111000000050E040E067E070E082E090E047D8F7
:101120008FEC97E00197F1F700C0000008950024CC
:10113000552704C0080E591F880F991F009729F0E2
:1011400076956795B8F37105B9F7802D952F0895B9
:10115000A1E21A2EAA1BBB1BFD010DC0AA1FBB1FBB
:10116000EE1FFF1FA217B307E407F50720F0A21B2D
:10117000B30BE40BF50B661F771F881F991F1A949A
:1011800069F760957095809590959B01AC01BD01C4
:10119000CF0108954532510518F4423008F004C0DB
:1011A000FB011082CB010895BB274A3031F499230B
:1011B00022F4BDE2909581959F4F01C0BB27FB01B2
:1011C0005527AA27880F991FAA1FA41710F0A41B40
:1011D00083955051B9F7A05DAA3308F0A95DA1939A
:1011E000009779F7B111B1931192CB0129C0EF9219
:1011F000FF920F931F93CF93DF937B01DB01139635
:101200002C9121FF17C08C01D0E0C0E0F801819142
:101210008F01882361F0D7011896ED91FC91199701
:10122000B7010995892B91F3DFEFCFEFEFCF8D2F2A
:101230009C2F02C08FEF9FEFCDB7DEB7E6E01CC05A
:10124000DC01FC01672F71917723E1F7329704C02D
:101250007C916D9370836291AE17BF07C8F30895B8
:101260002A88398848885F846E847D848C849B8436
:10127000AA84B984C884DF80EE80FD800C811B8144
:10128000AA81B981CE0FD11D0FB6F894DEBF0FBE73
:0A129000CDBFED010895F894FFCFE3
:10129A000083100000010410000001820800000110
:1012AA000000000000000000000000303030300074
:0E12BA00536869742062726F6B652E2E0000FF
:00000001FF
