:1000000075C000008FC000008DC000008BC00000D4
:1000100089C0000087C0000085C0000083C00000C8
:1000200081C000007FC000007DC0000012C600003B
:10003000B8C6000077C0000075C0000073C00000A3
:1000400071C000006FC000006DC000006BC00000F8
:1000500069C0000067C0000065C000007BC20000EE
:1000600061C000005FC000005DC000005BC0000018
:1000700059C0000016034C005700520041002000F8
:100080005200450056002000440000000A034C00C6
:1000900057005200410000000403090409023E0019
:1000A000020100C03209040000010202010005241F
:1000B000001001042402060524060001070582033E
:1000C0000800FF09040100020A00000007050402FD
:1000D000100005070583021000051201100102003F
:1000E0000008EB03442001000102DC0111241FBEC3
:1000F000CFEFD4E0DEBFCDBF11E0A0E0B1E0EEEC89
:10010000F9E102C005900D92A233B107D9F721E0C1
:10011000A2E3B1E001C01D92A239B207E1F7FFD21C
:100120000C94E50C6DCFEAECF0E080818660808372
:10013000E9ECF0E0808188618083ECECF0E0808184
:10014000836380830895E9ECF0E080818068808398
:1001500008958F929F92AF92BF92CF92DF92EF92CB
:10016000FF920F931F93CF93DF9310927401C1E01E
:10017000D0E0FE01E35CFE4F80818E3231F02196AB
:10018000C733D105B1F7C0E0D0E08E01035C1E4F4C
:10019000F8013297808190E0C0976AE070E00E9499
:1001A0001B0C31962081820F911D7C0120E3E21A05
:1001B000F10834978081D801149732968C32A9F0D7
:1001C00090E0C09764E670E00E941B0C9C018C914B
:1001D00090E0C0976AE070E00E941B0CB901680FC4
:1001E000791F8081680F711D0BC08C9190E0C097C2
:1001F0006AE070E00E941B0C2081820F911DBC01FF
:10020000605371092196072E000C880B990B0E94F0
:10021000240B4B015C01B701FF0C880B990B0E946A
:10022000240B20E030E040E752E40E94890A9B0161
:10023000AC01C501B4010E94250A6B017C01FE01DD
:10024000E35CFE4F608170E080E090E00E94220B52
:1002500020E030E040E452E40E94240A20E030E054
:1002600040E251E40E94B00B4B015C01F801628155
:1002700070E080E090E00E94220B20E030E040E45B
:1002800052E40E94240A9B01AC01C501B4010E9402
:10029000250A4B015C01F801638170E080E090E089
:1002A0000E94220B20E030E040E452E40E94240A45
:1002B0002DEC3CEC4CEC5DE30E94B00B9B01AC01DF
:1002C000C501B4010E94250A4B015C01F80164815B
:1002D00070E080E090E00E94220B20E030E040E4FB
:1002E00052E40E94240A2AE037ED43E25CE30E94D4
:1002F000B00B9B01AC01C501B4010E94250A4B0162
:100300005C01F801658170E080E090E00E94220BC2
:1003100020E030E040E452E40E94240A2FE632E17B
:1003200043E85AE30E94B00B9B01AC01C501B40144
:100330000E94250A20E030E041E655E40E94890A47
:100340009B01AC01C701B6010E94250A60933701E9
:10035000709338018093390190933A01C733D105E6
:1003600041F0FE01E35CFE4F80818E3221F0219648
:10037000F5CFC0E0D0E0C35CDE4FFE013297808154
:1003800090E0C0976AE070E00E941B0C31962081DB
:10039000820F911D8C010053110934978081DE0179
:1003A000149732968C32A9F090E0C09764E670E022
:1003B0000E941B0C9C018C9190E0C0976AE070E059
:1003C0000E941B0CB901680F791F8081680F711D95
:1003D0000BC08C9190E0C0976AE070E00E941B0C0B
:1003E0002081820F911DBC0160537109072E000C02
:1003F000880B990B0E94240B6B017C01B801110F33
:10040000880B990B0E94240B20E030E040E752E477
:100410000E94890A9B01AC01C701B6010E94250A0E
:100420006B017C01698170E080E090E00E94220B0A
:1004300020E030E040E452E40E94240A20E030E072
:1004400040E251E40E94B00B4B015C018A81682FAD
:1004500070E080E090E00E94220B20E030E040E479
:1004600052E4F2D79B01AC01C501B401EED74B01B8
:100470005C018B81682F70E080E090E00E94220B8D
:1004800020E030E040E452E4DFD72DEC3CEC4CECD3
:100490005DE30E94B00B9B01AC01C501B401D5D74F
:1004A0004B015C018C81682F70E080E090E00E943D
:1004B000220B20E030E040E452E4C6D72AE037EDDA
:1004C00043E25CE30E94B00B9B01AC01C501B401A7
:1004D000BCD74B015C018D81682F70E080E090E01B
:1004E0000E94220B20E030E040E452E4ADD72FE63A
:1004F00032E143E85AE30E94B00B9B01AC01C50115
:10050000B401A3D720E030E041E655E40E94890A17
:100510009B01AC01C701B60198D76093330170937A
:1005200034018093350190933601EDE3F1E08FE5DE
:10053000819321E0E437F207D9F7DF91CF911F9142
:100540000F91FF90EF90DF90CF90BF90AF909F9072
:100550008F9008951F920F920FB60F9211242F9330
:100560003F934F935F938F939F93AF93BF93EF937B
:10057000FF93F8948091C80087FFFCCF8091CE0054
:1005800020917501309176012330310509F456C070
:1005900054F42130310509F45BC00CF054C0232B16
:1005A00009F45BC062C025303105C9F10CF441C0CB
:1005B0002630310509F059C08D3099F020913B016A
:1005C00030913C012733310564F4A9014F5F5F4F3F
:1005D00050933C0140933B01F901E35CFE4F808363
:1005E00044C0EDE3F1E021E080E090E031913C3265
:1005F00059F430813C3241F4DC01A35CBE4F1296C9
:100600003C913C3209F420E001968733910571F763
:100610002093740110923C0110923B0105C08C3470
:1006200019F486E090E01DC01092760110927501D9
:100630001CC08C34C9F785E090E013C08734A1F763
:1006400084E090E00EC08E3479F783E090E009C03A
:10065000873451F782E090E004C0843231F481E0C5
:1006600090E090937601809375017894FF91EF91DB
:10067000BF91AF919F918F915F914F913F912F913A
:100680000F900FBE0F901F90189584B7877F84BF7F
:100690000FB6F894A89580916000886180936000FF
:1006A000109260000FBE90E080E80FB6F89480933F
:1006B0006100909361000FBEBDC20895089580E06F
:1006C00091E028C580E091E00FC608950F931F9335
:1006D000CF93DF93CDB7DEB72A970FB6F894DEBF7E
:1006E0000FBECDBF8E010F5F1F4F2AE0F8011192A0
:1006F0002A95E9F74AE050E0B8010E942C0C67E720
:1007000071E0C8010E94910C2A960FB6F894DEBFE2
:100710000FBECDBFDF91CF911F910F91089590E053
:1007200080E80FB6F89480936100909361000FBE4B
:10073000FADC09DD7894A9DF67E771E080E091E0F9
:10074000BFD5789480E091E085D580E091E06CD5CC
:10075000C7D4809174018823A9F3FBDC67E771E0BB
:100760008BE191E00E94910C60913701709138010A
:100770008091390190913A0134D7CB01A7DF67E727
:1007800071E08EE290E00E94590CC0903701D09049
:100790003801E0903901F0903A01C701B60121D744
:1007A000072E000C880B990B4FD79B01AC01C7019A
:1007B000B6014AD620E030E44CE156E4D1D711D757
:1007C000CB0184DF67E771E08AE090E00E94590C7A
:1007D00067E771E086E291E00E94910C609133013D
:1007E000709134018091350190913601FAD6CB0198
:1007F0006DDF67E771E08EE290E00E94590CC090D7
:100800003301D0903401E0903501F0903601C701FA
:10081000B601E7D6072E000C880B990B15D79B0164
:10082000AC01C701B60110D620E030E44CE156E43B
:1008300097D7D7D6CB014ADF67E771E08AE090E02F
:100840000E94590C7FCF292F33272230310559F0D0
:100850002330310569F021303105F9F482E190E06F
:100860002AED30E01EC08EE390E02CE930E019C0A4
:1008700099278130910541F08230910541F0892B13
:1008800061F4E8E9F0E005C0ECE8F0E002C0E4E77C
:10089000F0E0849190E09F0104C080E090E020E0CF
:1008A00030E0FA0131832083089520919001309146
:1008B00091012617370748F06115710539F4209129
:1008C000E8002E772093E80001C0B90140E06115EF
:1008D000710591F120918901222309F440C025304E
:1008E00009F43FC02091E80023FD3DC02091E800BD
:1008F00022FD2FC02091E80020FFE9CF2091F200D7
:1009000030E0FC01CF016115710559F02830310547
:1009100040F481918093F100615071092F5F3F4F46
:10092000F1CF41E02830310509F040E02091E800A6
:100930002E772093E800CBCF4111CCCF0AC0809115
:100940008901882361F0853061F08091E80083FDA2
:100950000AC08091E80082FFF2CF80E0089582E033
:10096000089583E0089581E00895209190013091E9
:1009700091012617370748F06115710539F4209168
:10098000E8002E772093E80001C0B901FC0120E0C7
:100990006115710579F180918901882309F43DC0C1
:1009A000853009F43CC08091E80083FD3AC0809115
:1009B000E80082FD2CC08091E80080FFE9CF8091A3
:1009C000F20090E06115710559F08830910540F40E
:1009D00024912093F1003196615071090196F2CF74
:1009E00021E0089709F020E08091E8008E7780935D
:1009F000E800CECF2111CFCF0AC080918901882392
:100A000061F0853061F08091E80083FD0AC080913B
:100A1000E80082FFF2CF80E0089582E0089583E04D
:100A2000089581E00895982F953058F59093E90046
:100A3000981739F07091EC002091ED005091F00082
:100A400003C0242F762F50E021FF19C03091EB0016
:100A50003E7F3093EB003091ED003D7F3093ED0011
:100A60003091EB0031603093EB007093EC002093F9
:100A7000ED005093F0002091EE0027FF07C09F5F2C
:100A8000D3CF8F708093E90081E0089580E00895CE
:100A9000EF92FF920F931F93CF93DF93E62EEC011B
:100AA0008C010C5F1F4FF12CFE1499F19881992352
:100AB00059F1F801208169817A8131973081892F3C
:100AC0008F70853010F080E025C0223010F442E0B5
:100AD00001C046E0E8E0F0E020E0E617F70720F488
:100AE0002F5FEE0FFF1FF9CF2295207F422B232F80
:100AF0002295220F220F207C991F9927991F622F80
:100B0000692B91DF8823F9F2F39425960B5F1F4F31
:100B1000CBCF81E0DF91CF911F910F91FF90EF90AC
:100B2000089580918A0187FF11C08091E80082FDBD
:100B300005C0809189018111F8CF11C08091E80032
:100B40008B770BC080918901882349F08091E80060
:100B500080FFF8CF8091E8008E778093E8000895B9
:100B60002091E4003091E50095E64091EC00842F5F
:100B7000817040FF22C08091E80080FD1CC0809100
:100B80008901882391F0853091F08091EB0085FDFB
:100B900010C04091E4005091E5004217530729F33B
:100BA0009A01915011F784E0089582E0089583E05E
:100BB000089581E0089580E008954091E80042FFA3
:100BC000DECF089540D042D08091D8008F778093B7
:100BD000D8008091D80080688093D8008091D80098
:100BE0008F7D8093D80019BC82E089BD09B400FED6
:100BF000FDCF109289011092850110928701109209
:100C0000860142E060E080E00EDF8091E1008E7FAF
:100C10008093E1008091E20081608093E200809106
:100C2000E20088608093E2008091E0008E7F8093F4
:100C3000E0000895E3E6F0E080818E7F808381E02C
:100C400080938801BFCF1092E20008951092E100D6
:100C500008951F920F920FB60F9211242F933F9376
:100C60004F935F936F937F938F939F93AF93BF93B4
:100C7000EF93FF938091E10082FF0AC08091E20030
:100C800082FF06C08091E1008B7F8093E10027D234
:100C90008091E10080FF17C08091E20080FF13C0C7
:100CA0008091E2008E7F8093E2008091E20080617B
:100CB0008093E2008091D80080628093D80019BCB4
:100CC00010928901FBDC8091E10084FF2EC08091AD
:100CD000E20084FF2AC019BC82E089BD09B400FE8D
:100CE000FDCF8091D8008F7D8093D8008091E10066
:100CF0008F7E8093E1008091E2008F7E8093E200FE
:100D00008091E20081608093E200809185018823D8
:100D100011F084E007C08091E30087FD02C081E00C
:100D200001C083E080938901C8DC8091E10083FFEA
:100D300027C08091E20083FF23C08091E100877F7C
:100D40008093E10082E08093890110928501809177
:100D5000E1008E7F8093E1008091E2008E7F80939E
:100D6000E2008091E20080618093E20042E060E076
:100D700080E059DE8091F00088608093F000AFD170
:100D8000FF91EF91BF91AF919F918F917F916F9163
:100D90005F914F913F912F910F900FBE0F901F9039
:100DA00018951F920F920FB60F9211242F933F9315
:100DB0004F935F936F937F938F939F93AF93BF9363
:100DC000CF93DF93EF93FF93C091E900CF708091B1
:100DD000EC00D82FD17080FDD0E81092E90080910E
:100DE000F000877F8093F00078941ED01092E90085
:100DF0008091F00088608093F000CD2BCF70C0937D
:100E0000E900FF91EF91DF91CF91BF91AF919F9159
:100E10008F917F916F915F914F913F912F910F90A3
:100E20000FBE0F901F9018951F93CF93DF93CDB7F0
:100E3000DEB7AA970FB6F894DEBF0FBECDBFEAE8C3
:100E4000F1E088E08E0F9091F10091938E13FBCF2B
:100E500039DC8091E80083FF2AC180918A0190915A
:100E60008B01953009F483C030F49130A9F168F01A
:100E7000933091F11CC1983009F4EEC0993009F417
:100E8000FAC0963009F013C194C0803821F082383E
:100E900009F00DC108C080918601909187019923C6
:100EA00089F082600FC080918E018F70853008F0CC
:100EB000FEC08093E9008091EB0085FB882780F9D4
:100EC0001092E9009091E800977F9093E80080935A
:100ED000F1001092F100CBC0282F2D7F09F0E7C060
:100EE000882319F0823061F0E2C080918C0181305A
:100EF00009F0DDC0933009F080E0809387012EC0B7
:100F000080918C0181112AC080918E018F702FEF0A
:100F1000280F243008F0CBC08093E9002091EB002B
:100F200020FF1CC0933021F48091EB00806214C03C
:100F30009091EB0090619093EB0021E030E0A901EB
:100F400002C0440F551F8A95E2F74093EA001092C1
:100F5000EA008091EB0088608093EB001092E9003A
:100F60008091E800877F8093E800DBDDA0C08111DD
:100F70009EC010918C011F778091E3008078812BB7
:100F80008093E3008091E800877F8093E800C9DDCB
:100F90008091E80080FFFCCF8091E300806880931F
:100FA000E300111102C082E001C083E08093890157
:100FB0007EC08058823008F07AC080918C01909178
:100FC0008D018C3D53E0950771F583E08A838AE2B9
:100FD00089834FB7F894DE01139620E03EE051E29A
:100FE000E32FF0E050935700E49120FF03C0E29517
:100FF000EF703F5FEF708E2F90E0EA3010F0C796F1
:1010000001C0C0968D939D932F5F243149F74FBF48
:101010008091E800877F8093E8006AE270E0CE016B
:10102000019643DC13C060918E0170918F01AE0177
:101030004F5F5F4F08DCBC01892BC9F19091E8003C
:10104000977F9093E80089819A818FDC8091E800F6
:101050008B778093E8002BC0803849F58091E800B9
:10106000877F8093E800809185018093F1008091D3
:10107000E8008E7778CF81111AC090918C01923060
:10108000B0F48091E800877F8093E8009093850119
:1010900048DD80918501811106C08091E30087FDC4
:1010A00002C081E001C084E08093890108DB809167
:1010B000E80083FF0AC08091E800877F8093E80002
:1010C0008091EB0080628093EB00AA960FB6F894B3
:1010D000DEBF0FBECDBFDF91CF911F910895089560
:1010E000CF9380918901882399F0C091E900CF7056
:1010F0009091EC00892F817090FD80E8C82B1092B0
:10110000E9008091E80083FD8FDECF70C093E90095
:10111000CF910895CF93DF93EC01FC0170968BE0A3
:10112000DF011D928A95E9F782E08C83898783E04D
:101130008E8761E0CE010196ABDC882361F061E02F
:10114000CE010696A5DC882331F061E0CE010B9636
:10115000DF91CF919DCC80E0DF91CF9108950F93E7
:101160001F93CF93209189012430F9F4FC01048965
:10117000158926893789012B022B032BB1F0C62F45
:1011800081818F708093E9008091E80085FF04C021
:10119000C093F10080E00AC08091E8008E778093D0
:1011A000E800DEDC8823A1F301C082E0CF911F912B
:1011B0000F910895FB01682F84859585D0DF21E08C
:1011C00030E0811102C020E030E088279927821B9F
:1011D000930B089520918901243021F5FC01448965
:1011E000558966897789452B462B472BD9F0818114
:1011F0008F708093E9008091F200882389F09091AC
:10120000E8008091E8008E778093E80095FD08C0A3
:10121000A7DC811108C08091E8008E778093E800F8
:1012200080E0089582E0089520918901243089F4B6
:10123000FC014489558966897789452B462B472BC4
:1012400041F021812F702093E9002091E80020FDDA
:10125000C1CF089520918901243019F08FEF9FEFBD
:101260000895FC014489558966897789452B462B69
:10127000472BA1F386818F708093E9008091E8006D
:1012800082FFECCF8091F200882321F02091F100C1
:1012900030E002C02FEF3FEF8091F200811105C0D6
:1012A0008091E8008B778093E800C9010895FC01E4
:1012B00084859585CFDF97FF02C08EEF9FEF08955D
:1012C000FB012EE0DB011D922A95E9F723E0238341
:1012D0002AED38E03187208727E539E033872287F8
:1012E0009587848708950895CF93DF93EC018091CB
:1012F000E80083FFA6C0888190E020918E013091A4
:101300008F012817390709F09CC080918B01813229
:1013100061F020F4803209F43EC093C0823209F4B7
:101320006CC0833209F47DC08CC080918A01813AFF
:1013300009F087C08091E800877F8093E800809162
:10134000E80080FFFCCF8C899D89AE89BF8980939E
:10135000F100492F5A2F6B2F77274093F100AD01F1
:10136000662777274093F1008B2F9927AA27BB2761
:101370008093F100888D8093F100898D8093F10036
:101380008A8D8093F1008091E8008E778093E80049
:10139000DF91CF91C6CB80918A01813209F051C093
:1013A0008091E800877F8093E8008091E80082FDCB
:1013B00005C0809189018111F8CF43C03091F100BF
:1013C0002091F1009091F1008091F1003C8B2D8BE8
:1013D0009E8B8F8B8091F100888F8091F100898F97
:1013E0008091F1008A8F8091E8008B778093E800EC
:1013F00098DBCE01DF91CF9176CF80918A01813247
:1014000001F58091E800877F8093E8008ADB809176
:101410008C0190918D01998B888BCE01DF91CF91BA
:1014200054C980918A01813261F48091E800877FFC
:101430008093E80076DB60918C01CE01DF91CF9143
:1014400052CFDF91CF9108955058BB27AA270ED0D5
:101450004DC13ED130F043D120F031F49F3F11F423
:101460001EF433C10EF4E095E7FB29C1E92F4FD1FB
:1014700080F3BA17620773078407950718F071F4B1
:101480009EF567C10EF4E0950B2EBA2FA02D0B012F
:10149000B90190010C01CA01A0011124FF27591BB9
:1014A00099F0593F50F4503E68F11A16F040A22FBF
:1014B000232F342F4427585FF3CF46953795279530
:1014C000A795F0405395C9F77EF41F16BA0B620B2F
:1014D000730B840BBAF09150A1F0FF0FBB1F661F76
:1014E000771F881FC2F70EC0BA0F621F731F841FB9
:1014F00048F4879577956795B795F7959E3F08F0DF
:10150000B3CF9395880F08F09927EE0F979587959D
:1015100008950CD0EBC0E3D040F0DAD030F021F4E5
:101520005F3F19F0CCC0511115C1CFC0F0D098F376
:101530009923C9F35523B1F3951B550BBB27AA2754
:1015400062177307840738F09F5F5F4F220F331FC6
:10155000441FAA1FA9F333D00E2E3AF0E0E830D092
:1015600091505040E695001CCAF729D0FE2F27D095
:10157000660F771F881FBB1F261737074807AB0763
:10158000B0E809F0BB0B802DBF01FF2793585F4FD8
:101590002AF09E3F510568F092C0DCC05F3FECF33B
:1015A000983EDCF3869577956795B795F7959F5F9D
:1015B000C9F7880F911D9695879597F90895E1E0F1
:1015C000660F771F881FBB1F621773078407BA0750
:1015D00020F0621B730B840BBA0BEE1F88F7E095AB
:1015E000089504D06894B111B5C0089598D088F0DA
:1015F0009F5790F0B92F9927B751A0F0D1F0660FFF
:10160000771F881F991F1AF0BA95C9F712C0B13019
:1016100081F09FD0B1E008959CC0672F782F882774
:10162000B85F39F0B93FCCF3869577956795B39558
:10163000D9F73EF490958095709561957F4F8F4FC7
:101640009F4F0895E89409C097FB3EF490958095CC
:10165000709561957F4F8F4F9F4F9923A9F0F92F78
:1016600096E9BB279395F695879577956795B795F6
:10167000F111F8CFFAF4BB0F11F460FF1BC06F5FDC
:101680007F4F8F4F9F4F16C0882311F096E911C0EE
:10169000772321F09EE8872F762F05C0662371F00F
:1016A00096E8862F70E060E02AF09A95660F771F23
:1016B000881FDAF7880F9695879597F9089597F917
:1016C0009F6780E870E060E008959FEF80EC0895E8
:1016D00000240A9416161706180609060895002411
:1016E0000A9412161306140605060895092E03948B
:1016F000000C11F4882352F0BB0F40F4BF2B11F4FF
:1017000060FF04C06F5F7F4F8F4F9F4F089557FD5D
:101710009058440F551F59F05F3F71F04795880F5F
:1017200097FB991F61F09F3F79F0879508951216F6
:1017300013061406551FF2CF4695F1DF08C01616A2
:1017400017061806991FF1CF869571056105089453
:101750000895E894BB2766277727CB0197F908956A
:101760000AD0C4CFB5DF28F0BADF18F0952309F00E
:10177000A6CFABCFEFCFCBDFA8F39923D9F3552377
:10178000C9F3950F50E0551FAA27EE27FF27BB2767
:1017900000240894679520F4E20FF31FB41F0A1E7B
:1017A000220F331F441FAA1F6695A9F7779530F4BF
:1017B000F30FB41F0A1E121E08F46395330F441F63
:1017C000AA1F221F769599F7879520F4B40F0A1E59
:1017D000121E631F440FAA1F221F331F8695A9F7ED
:1017E000862F712D602D11249F5750408AF0E1F013
:1017F00088234AF0EE0FFF1FBB1F661F771F881F4D
:1018000091505040A9F79E3F510570F058CFA2CF9C
:101810005F3FECF3983EDCF3869577956795B79537
:10182000F795E7959F5FC1F7FE2B880F911D969561
:10183000879597F908950024552704C0080E591F6D
:10184000880F991F009729F076956795B8F3710571
:10185000B9F7802D952F08954532510518F442307F
:1018600008F004C0FB011082CB010895BB274A3069
:1018700031F4992322F4BDE2909581959F4F01C0E8
:10188000BB27FB015527AA27880F991FAA1FA4175A
:1018900010F0A41B83955051B9F7A05DAA3308F04E
:1018A000A95DA193009779F7B111B1931192CB0182
:1018B00061C00F931F93CF93DF93FB01238121FD21
:1018C00003C08FEF9FEF28C022FF16C046815781CB
:1018D000248135814217530744F4A081B1819D01D1
:1018E0002F5F3F4F318320838C93268137812F5F79
:1018F0003F4F3783268310C0EB01092F182F008438
:10190000F185E02D0995892BE1F68E819F81019665
:101910009F838E83812F902FDF91CF911F910F9105
:101920000895EF92FF920F931F93CF93DF93DB0104
:1019300013962C9121FF18C08B017C01D0E0C0E0F0
:10194000F70181917F01882361F0D8011896ED910C
:10195000FC911997B8010995892B91F3DFEFCFEF2F
:10196000EFCF8D2F9C2F02C08FEF9FEFCDB7DEB74B
:10197000E6E01CC0DC01FC01672F71917723E1F7E1
:10198000329704C07C916D9370836291AE17BF074C
:10199000C8F308952A88398848885F846E847D84D6
:1019A0008C849B84AA84B984C884DF80EE80FD8007
:1019B0000C811B81AA81B981CE0FD11D0FB6F8947D
:0E19C000DEBF0FBECDBFED010895F894FFCF3E
:1019CE0000831000000104100000018208000001D5
:1019DE0000000000000000000000004C61746974FB
:1019EE007564653A20004C6F6E6769747564653A6C
:0219FE002000C7
:00000001FF
