:1000000075C000008FC000008DC000008BC00000D4
:1000100089C0000087C0000085C0000083C00000C8
:1000200081C000007FC000007DC00000BCC5000092
:1000300062C6000077C0000075C0000073C00000F9
:1000400071C000006FC000006DC000006BC00000F8
:1000500069C0000067C0000065C00000CBC00000A0
:1000600061C000005FC000005DC000005BC0000018
:1000700059C0000016034C005700520041002000F8
:100080005200450056002000440000000A034C00C6
:1000900057005200410000000403090409023E0019
:1000A000020100C03209040000010202010005241F
:1000B000001001042402060524060001070582033E
:1000C0000800FF09040100020A00000007050402FD
:1000D000100005070583021000051201100102003F
:1000E0000008EB03442001000102DC0111241FBEC3
:1000F000CFEFD2E0DEBFCDBF11E0A0E0B1E0E4E29F
:10010000F9E102C005900D92A233B107D9F721E0C1
:10011000A2E3B1E001C01D92AA38B207E1F7E8D02E
:100120000C94900C6DCF84B7877F84BF0FB6F89482
:10013000A8958091600088618093600010926000B3
:100140000FBE90E080E80FB6F89480936100909322
:1001500061000FBE19C50895089580E091E084C73D
:1001600080E091E00C941E090895EAECF0E08081B3
:1001700086608083E9ECF0E0808188618083ECEC2C
:10018000F0E08081836380830895E9ECF0E0808172
:100190008068808308950F931F93CF93DF93CDB72B
:1001A000DEB72A970FB6F894DEBF0FBECDBF8E0123
:1001B0000F5F1F4F2AE0F80111922A95E9F74AE0F4
:1001C00050E0B8010E94D70B6FE671E0C8010E94B1
:1001D0003C0C6FE671E08AE090E00E94040C2A96E5
:1001E0000FB6F894DEBF0FBECDBFDF91CF911F9148
:1001F0000F9108951F920F920FB60F9211242F9313
:100200003F934F935F938F939F93EF93FF93F89454
:100210008091C80087FFFCCF8091CE0020916C01B7
:1002200030916D0123303105F1F14CF4213031056D
:1002300009F443C0ECF5232B09F444C04BC025302E
:10024000310511F15CF12630310509F043C08D30E4
:1002500099F020913201309133012733310564F454
:10026000A9014F5F5F4F5093330140933201F90171
:10027000EC5CFE4F80832EC081E080936B01109276
:1002800033011092320105C08C3419F486E090E0FD
:100290001DC010926D0110926C011CC08C34C9F706
:1002A00085E090E013C08734A1F784E090E00EC0B1
:1002B000803579F783E090E009C0873451F782E018
:1002C00090E004C0843231F481E090E090936D01BD
:1002D00080936C017894FF91EF919F918F915F9142
:1002E0004F913F912F910F900FBE0F901F90189537
:1002F00090E080E80FB6F8948093610090936100DD
:100300000FBE33DF42DF78940EDF6FE671E080E0EE
:1003100091E080D778948FE5382E80E091E044D743
:1003200080E091E02BD786D680916B018823A9F3DA
:1003300010926B0104E311E0F80180E090E021E00D
:1003400031913C3259F430813C3241F4DC01AC5CF7
:10035000BE4F12963C913C3209F420E0019687335F
:10036000910571F7222309F410C2C1E0D0E0FE012B
:10037000EC5CFE4F80818E3231F02196C733D1057F
:10038000B1F7C0E0D0E0CE018C5C9E4F7C01FC0157
:100390003297808190E0C0976AE070E00E94C60BBF
:1003A00031962081820F911D6C01E0E3CE1AD108B5
:1003B000F70135978081D701149732968C32A9F0D6
:1003C00090E0C09764E670E00E94C60B9C018C919F
:1003D00090E0C0976AE070E00E94C60BB901680F18
:1003E000791F8081680F711D0BC08C9190E0C097C0
:1003F0006AE070E00E94C60B2081820F911DBC0153
:10040000605371092196072E000C880B990B0E94EE
:10041000CF0A4B015C01B601DD0C880B990B0E94E1
:10042000CF0A20E030E040E752E40E94340A9B010A
:10043000AC01C501B401B4D74B015C01FE01EC5C19
:10044000FE4F608170E080E090E00E94CD0A20E0E5
:1004500030E040E452E4A3D720E030E040E251E451
:100460000E945B0B2B013C01F701628170E080E090
:1004700090E00E94CD0A20E030E040E452E48FD7C3
:100480009B01AC01C301B2018BD72B013C01F701E9
:10049000638170E080E090E00E94CD0A20E030E0CF
:1004A00040E452E47CD72DEC3CEC4CEC5DE30E9444
:1004B0005B0B9B01AC01C301B20172D72B013C0164
:1004C000F701648170E080E090E00E94CD0A20E0B6
:1004D00030E040E452E463D72AE037ED43E25CE3E6
:1004E0000E945B0B9B01AC01C301B20159D72B01E8
:1004F0003C01F701658170E080E090E00E94CD0A48
:1005000020E030E040E452E44AD72FE632E143E80D
:100510005AE30E945B0B9B01AC01C301B20140D7BF
:1005200020E030E041E655E49FD79B01AC01C501D6
:10053000B40136D76B017C01C733D10541F0FE0110
:10054000EC5CFE4F80818E3221F02196F5CFC0E029
:10055000D0E0CC5CDE4FFE013297808190E0C09706
:100560006AE070E00E94C60B31962081820F911DD7
:100570005C01F0E3AF1AB108FE0135978081DE011E
:10058000149732968C32A9F090E0C09764E670E040
:100590000E94C60B9C018C9190E0C0976AE070E0CD
:1005A0000E94C60BB901680F791F8081680F711D09
:1005B0000BC08C9190E0C0976AE070E00E94C60B7F
:1005C0002081820F911DBC0160537109072E000C20
:1005D000880B990BE4D72B013C01B501BB0C880BB0
:1005E000990BDDD720E030E040E752E43DD79B0196
:1005F000AC01C301B201D4D64B015C01698170E04A
:1006000080E090E0CAD720E030E040E452E4C7D672
:1006100020E030E040E251E40E945B0B2B013C0102
:100620006A8170E080E090E0B8D720E030E040E4FC
:1006300052E4B5D69B01AC01C301B201B1D62B0186
:100640003C016B8170E080E090E0A7D720E030E0D3
:1006500040E452E4A4D62DEC3CEC4CEC5DE30E946B
:100660005B0B9B01AC01C301B2019AD62B013C018B
:100670006C8170E080E090E090D720E030E040E4D2
:1006800052E48DD62AE037ED43E25CE30E945B0B37
:100690009B01AC01C301B20183D62B013C016D81EA
:1006A00070E080E090E079D720E030E040E452E470
:1006B00076D62FE632E143E85AE3FDD79B01AC0141
:1006C000C301B2016DD620E030E041E655E4CCD65E
:1006D0009B01AC01C501B40163D64B015C016FE61F
:1006E00071E08BE191E00E943C0CC701B60124D778
:1006F0002B013C01CB014FDD6FE671E08EE290E013
:100700000E94040CB201550C880B990B48D79B0131
:10071000AC01C701B60143D620E030E44CE156E419
:10072000CAD70AD7CB0137DD6FE671E08AE090E0E7
:100730000E94040C6FE671E086E291E00E943C0C9E
:10074000C501B401F9D66B017C01CB0124DD6FE654
:1007500071E08EE290E00E94040CB601DD0C880B83
:10076000990B1DD79B01AC01C501B40118D620E03F
:1007700030E44CE156E49FD7DFD6CB010CDD6FE6C9
:1007800071E08AE090E00E94040CF80131928F0140
:10079000F1E00B361F07C9F7C0CD292F33272230D0
:1007A000310559F02330310569F021303105F9F474
:1007B00082E190E02AED30E01EC08EE390E02CE96B
:1007C00030E019C099278130910541F082309105C0
:1007D00041F0892B61F4E8E9F0E005C0ECE8F0E0D5
:1007E00002C0E4E7F0E0849190E09F0104C080E063
:1007F00090E020E030E0FA013183208308952091D9
:100800008801309189012617370748F06115710575
:1008100039F42091E8002E772093E80001C0B90157
:1008200040E06115710591F120918101222309F4C5
:1008300040C0253009F43FC02091E80023FD3DC0B1
:100840002091E80022FD2FC02091E80020FFE9CF91
:100850002091F20030E0FC01CF016115710559F0E3
:100860002830310540F481918093F1006150710985
:100870002F5F3F4FF1CF41E02830310509F040E0D4
:100880002091E8002E772093E800CBCF4111CCCF08
:100890000AC080918101882361F0853061F08091E8
:1008A000E80083FD0AC08091E80082FFF2CF80E07B
:1008B000089582E0089583E0089581E008952091ED
:1008C0008801309189012617370748F061157105B5
:1008D00039F42091E8002E772093E80001C0B90197
:1008E000FC0120E06115710579F180918101882377
:1008F00009F43DC0853009F43CC08091E80083FDD7
:100900003AC08091E80082FD2CC08091E80080FF11
:10091000E9CF8091F20090E06115710559F08830BF
:10092000910540F424912093F100319661507109B2
:100930000196F2CF21E0089709F020E08091E800CD
:100940008E778093E800CECF2111CFCF0AC080915F
:100950008101882361F0853061F08091E80083FD9A
:100960000AC08091E80082FFF2CF80E0089582E023
:10097000089583E0089581E00895982F953058F503
:100980009093E900981739F07091EC002091ED00F8
:100990005091F00003C0242F762F50E021FF19C0A2
:1009A0003091EB003E7F3093EB003091ED003D7FC6
:1009B0003093ED003091EB0031603093EB00709399
:1009C000EC002093ED005093F0002091EE0027FF03
:1009D00007C09F5FD3CF8F708093E90081E00895B7
:1009E00080E00895EF92FF920F931F93CF93DF93D0
:1009F000E62EEC018C010C5F1F4FF12CFE1499F1D7
:100A00009881992359F1F801208169817A81319780
:100A10003081892F8F70853010F080E025C0223022
:100A200010F442E001C046E0E8E0F0E020E0E61724
:100A3000F70720F42F5FEE0FFF1FF9CF2295207FDD
:100A4000422B232F2295220F220F207C991F9927BA
:100A5000991F622F692B91DF8823F9F2F394259671
:100A60000B5F1F4FCBCF81E0DF91CF911F910F9193
:100A7000FF90EF9008958091820187FF11C08091CF
:100A8000E80082FD05C0809181018111F8CF11C07D
:100A90008091E8008B770BC080918101882349F019
:100AA0008091E80080FFF8CF8091E8008E778093F6
:100AB000E80008952091E4003091E50095E640912A
:100AC000EC00842F817040FF22C08091E80080FDFF
:100AD0001CC080918101882391F0853091F0809134
:100AE000EB0085FD10C04091E4005091E5004217F5
:100AF000530729F39A01915011F784E0089582E099
:100B0000089583E0089581E0089580E0089540917C
:100B1000E80042FFDECF089540D042D08091D80057
:100B20008F778093D8008091D80080688093D80018
:100B30008091D8008F7D8093D80019BC82E089BD58
:100B400009B400FEFDCF1092810110927D01109238
:100B50007F0110927E0142E060E080E00EDF809134
:100B6000E1008E7F8093E1008091E20081608093BC
:100B7000E2008091E20088608093E2008091E000D2
:100B80008E7F8093E0000895E3E6F0E080818E7F21
:100B9000808381E080938001BFCF1092E2000895AE
:100BA0001092E10008951F920F920FB60F92112438
:100BB0002F933F934F935F936F937F938F939F9365
:100BC000AF93BF93EF93FF938091E10082FF0AC040
:100BD0008091E20082FF06C08091E1008B7F8093CC
:100BE000E10027D28091E10080FF17C08091E200F0
:100BF00080FF13C08091E2008E7F8093E20080919D
:100C0000E20080618093E2008091D800806280934E
:100C1000D80019BC109281019FDA8091E10084FF15
:100C20002EC08091E20084FF2AC019BC82E089BDF9
:100C300009B400FEFDCF8091D8008F7D8093D8004D
:100C40008091E1008F7E8093E1008091E2008F7EB1
:100C50008093E2008091E20081608093E2008091C5
:100C60007D01882311F084E007C08091E30087FDB7
:100C700002C081E001C083E0809381016CDA809141
:100C8000E10083FF27C08091E20083FF23C08091B1
:100C9000E100877F8093E10082E0809381011092E0
:100CA0007D018091E1008E7F8093E1008091E200E0
:100CB0008E7F8093E2008091E20080618093E20069
:100CC00042E060E080E059DE8091F000886080932F
:100CD000F000AFD1FF91EF91BF91AF919F918F91B4
:100CE0007F916F915F914F913F912F910F900FBE28
:100CF0000F901F9018951F920F920FB60F9211240C
:100D00002F933F934F935F936F937F938F939F9313
:100D1000AF93BF93CF93DF93EF93FF93C091E9001D
:100D2000CF708091EC00D82FD17080FDD0E8109268
:100D3000E9008091F000877F8093F00078941ED0C6
:100D40001092E9008091F00088608093F000CD2B34
:100D5000CF70C093E900FF91EF91DF91CF91BF91E8
:100D6000AF919F918F917F916F915F914F913F9143
:100D70002F910F900FBE0F901F9018951F93CF9338
:100D8000DF93CDB7DEB7AA970FB6F894DEBF0FBEDC
:100D9000CDBFE2E8F1E088E08E0F9091F1009193F1
:100DA0008E13FBCFDDD98091E80083FF2AC18091AB
:100DB000820190918301953009F483C030F4913021
:100DC000A9F168F0933091F11CC1983009F4EEC09C
:100DD000993009F4FAC0963009F013C194C08038F4
:100DE00021F0823809F00DC108C080917E019091F8
:100DF0007F01992389F082600FC0809186018F70F6
:100E0000853008F0FEC08093E9008091EB0085FBFF
:100E1000882780F91092E9009091E800977F9093DD
:100E2000E8008093F1001092F100CBC0282F2D7FB5
:100E300009F0E7C0882319F0823061F0E2C08091A8
:100E40008401813009F0DDC0933009F080E08093A7
:100E50007F012EC08091840181112AC0809186017A
:100E60008F702FEF280F243008F0CBC08093E9005B
:100E70002091EB0020FF1CC0933021F48091EB0007
:100E8000806214C09091EB0090619093EB0021E0A0
:100E900030E0A90102C0440F551F8A95E2F7409344
:100EA000EA001092EA008091EB0088608093EB00EA
:100EB0001092E9008091E800877F8093E800DBDDF5
:100EC000A0C081119EC0109184011F778091E30022
:100ED0008078812B8093E3008091E800877F809366
:100EE000E800C9DD8091E80080FFFCCF8091E3003D
:100EF00080688093E300111102C082E001C083E0AA
:100F0000809381017EC08058823008F07AC0809141
:100F10008401909185018C3D53E0950771F583E044
:100F20008A838AE289834FB7F894DE01139620E022
:100F30003EE051E2E32FF0E050935700E49120FFB0
:100F400003C0E295EF703F5FEF708E2F90E0EA30C4
:100F500010F0C79601C0C0968D939D932F5F2431EA
:100F600049F74FBF8091E800877F8093E8006AE2ED
:100F700070E0CE01019643DC13C060918601709150
:100F80008701AE014F5F5F4F08DCBC01892BC9F1BF
:100F90009091E800977F9093E80089819A818FDC97
:100FA0008091E8008B778093E8002BC0803849F56A
:100FB0008091E800877F8093E80080917D01809395
:100FC000F1008091E8008E7778CF81111AC090915E
:100FD00084019230B0F48091E800877F8093E8002C
:100FE00090937D0148DD80917D01811106C0809143
:100FF000E30087FD02C081E001C084E080938101AD
:10100000ACD88091E80083FF0AC08091E800877F18
:101010008093E8008091EB0080628093EB00AA96B9
:101020000FB6F894DEBF0FBECDBFDF91CF911F91F9
:1010300008950895CF9380918101882399F0C091FC
:10104000E900CF709091EC00892F817090FD80E8CD
:10105000C82B1092E9008091E80083FD8FDECF70ED
:10106000C093E900CF910895CF93DF93EC01FC0189
:1010700070968BE0DF011D928A95E9F782E08C8300
:10108000898783E08E8761E0CE010196ABDC8823FF
:1010900061F061E0CE010696A5DC882331F061E0C5
:1010A000CE010B96DF91CF919DCC80E0DF91CF9167
:1010B00008950F931F93CF93209181012430F9F469
:1010C000FC010489158926893789012B022B032B02
:1010D000B1F0C62F81818F708093E9008091E80084
:1010E00085FF04C0C093F10080E00AC08091E80051
:1010F0008E778093E800DEDC8823A1F301C082E0D4
:10110000CF911F910F910895FB01682F84859585DC
:10111000D0DF21E030E0811102C020E030E08827FC
:101120009927821B930B089520918101243021F58A
:10113000FC014489558966897789452B462B472BC5
:10114000D9F081818F708093E9008091F20088232B
:1011500089F09091E8008091E8008E778093E80014
:1011600095FD08C0A7DC811108C08091E8008E774A
:101170008093E80080E0089582E008952091810145
:10118000243089F4FC014489558966897789452B87
:10119000462B472B41F021812F702093E9002091AD
:1011A000E80020FDC1CF089520918101243019F07D
:1011B0008FEF9FEF0895FC014489558966897789EF
:1011C000452B462B472BA1F386818F708093E90036
:1011D0008091E80082FFECCF8091F200882321F01B
:1011E0002091F10030E002C02FEF3FEF8091F2003C
:1011F000811105C08091E8008B778093E800C901D8
:101200000895FC0184859585CFDF97FF02C08EEF9E
:101210009FEF0895FB012EE0DB011D922A95E9F76F
:1012200023E0238324E838E03187208721E039E078
:10123000338722879587848708950895CF93DF9316
:10124000EC018091E80083FFA7C0888190E02091A5
:101250008601309187012817390709F09DC08091D8
:101260008301813261F020F4803209F43EC094C0E1
:10127000823209F46CC0833209F47EC08DC0809143
:101280008201813A09F088C08091E800877F8093CD
:10129000E8008091E80080FFFCCF8C899D89AE89B1
:1012A000BF898093F100492F5A2F6B2F77274093E6
:1012B000F100AD01662777274093F1008B2F992726
:1012C000AA27BB278093F100888D8093F100898D38
:1012D0008093F1008A8D8093F1008091E8008E77F1
:1012E0008093E800DF91CF91C6CB8091820181325B
:1012F00009F052C08091E800877F8093E8008091D8
:10130000E80082FD05C0809181018111F8CF44C0C1
:101310003091F1002091F1009091F1008091F10065
:101320003C8B2D8B9E8B8F8B8091F100888F8091D1
:10133000F100898F8091F1008A8F8091E8008B778E
:101340008093E80098DBCE01DF91CF9176CF80913A
:101350008201813209F58091E800877F8093E8005F
:101360008ADB8091840190918501998B888BCE01D5
:10137000DF91CF910C94B40080918201813261F4AD
:101380008091E800877F8093E80075DB609184019D
:10139000CE01DF91CF9151CFDF91CF910895505879
:1013A000BB27AA270ED04DC13ED130F043D120F04B
:1013B00031F49F3F11F41EF433C10EF4E095E7FBC6
:1013C00029C1E92F4FD180F3BA1762077307840749
:1013D000950718F071F49EF567C10EF4E0950B2E99
:1013E000BA2FA02D0B01B90190010C01CA01A00177
:1013F0001124FF27591B99F0593F50F4503E68F1D2
:101400001A16F040A22F232F342F4427585FF3CF12
:10141000469537952795A795F0405395C9F77EF4E3
:101420001F16BA0B620B730B840BBAF09150A1F02C
:10143000FF0FBB1F661F771F881FC2F70EC0BA0FB2
:10144000621F731F841F48F4879577956795B7953A
:10145000F7959E3F08F0B3CF9395880F08F0992732
:10146000EE0F9795879508950CD0EBC0E3D040F030
:10147000DAD030F021F45F3F19F0CCC0511115C122
:10148000CFC0F0D098F39923C9F35523B1F3951B3E
:10149000550BBB27AA2762177307840738F09F5F95
:1014A0005F4F220F331F441FAA1FA9F333D00E2E04
:1014B0003AF0E0E830D091505040E695001CCAF771
:1014C00029D0FE2F27D0660F771F881FBB1F261736
:1014D00037074807AB07B0E809F0BB0B802DBF0109
:1014E000FF2793585F4F2AF09E3F510568F092C046
:1014F000DCC05F3FECF3983EDCF38695779567950B
:10150000B795F7959F5FC9F7880F911D96958795B9
:1015100097F90895E1E0660F771F881FBB1F6217D8
:1015200073078407BA0720F0621B730B840BBA0B96
:10153000EE1F88F7E095089504D06894B111B5C006
:10154000089598D088F09F5790F0B92F9927B751F8
:10155000A0F0D1F0660F771F881F991F1AF0BA9577
:10156000C9F712C0B13081F09FD0B1E008959CC09E
:10157000672F782F8827B85F39F0B93FCCF386956D
:1015800077956795B395D9F73EF4909580957095CA
:1015900061957F4F8F4F9F4F0895E89409C097FB47
:1015A0003EF490958095709561957F4F8F4F9F4F3A
:1015B0009923A9F0F92F96E9BB279395F69587957E
:1015C00077956795B795F111F8CFFAF4BB0F11F441
:1015D00060FF1BC06F5F7F4F8F4F9F4F16C08823E8
:1015E00011F096E911C0772321F09EE8872F762F1E
:1015F00005C0662371F096E8862F70E060E02AF05F
:101600009A95660F771F881FDAF7880F969587954A
:1016100097F9089597F99F6780E870E060E0089572
:101620009FEF80EC089500240A94161617061806FA
:101630000906089500240A941216130614060506D6
:101640000895092E0394000C11F4882352F0BB0F67
:1016500040F4BF2B11F460FF04C06F5F7F4F8F4FCA
:101660009F4F089557FD9058440F551F59F05F3F05
:1016700071F04795880F97FB991F61F09F3F79F0B4
:1016800087950895121613061406551FF2CF469536
:10169000F1DF08C0161617061806991FF1CF8695B8
:1016A0007105610508940895E894BB27662777279C
:1016B000CB0197F908950AD0C4CFB5DF28F0BADF7F
:1016C00018F0952309F0A6CFABCFEFCFCBDFA8F36F
:1016D0009923D9F35523C9F3950F50E0551FAA2735
:1016E000EE27FF27BB2700240894679520F4E20F1C
:1016F000F31FB41F0A1E220F331F441FAA1F669533
:10170000A9F7779530F4F30FB41F0A1E121E08F4E0
:101710006395330F441FAA1F221F769599F787956B
:1017200020F4B40F0A1E121E631F440FAA1F221FAB
:10173000331F8695A9F7862F712D602D11249F5791
:1017400050408AF0E1F088234AF0EE0FFF1FBB1FE4
:10175000661F771F881F91505040A9F79E3F510583
:1017600070F058CFA2CF5F3FECF3983EDCF3869544
:1017700077956795B795F795E7959F5FC1F7FE2B2E
:10178000880F911D9695879597F908950024552700
:1017900004C0080E591F880F991F009729F07695ED
:1017A0006795B8F37105B9F7802D952F08954532E7
:1017B000510518F4423008F004C0FB011082CB013F
:1017C0000895BB274A3031F4992322F4BDE2909565
:1017D00081959F4F01C0BB27FB015527AA27880F82
:1017E000991FAA1FA41710F0A41B83955051B9F795
:1017F000A05DAA3308F0A95DA193009779F7B11114
:10180000B1931192CB0161C00F931F93CF93DF93DC
:10181000FB01238121FD03C08FEF9FEF28C022FF32
:1018200016C046815781248135814217530744F4FD
:10183000A081B1819D012F5F3F4F318320838C9325
:10184000268137812F5F3F4F3783268310C0EB01FE
:10185000092F182F0084F185E02D0995892BE1F6D9
:101860008E819F8101969F838E83812F902FDF91A0
:10187000CF911F910F910895EF92FF920F931F93B5
:10188000CF93DF93DB0113962C9121FF18C08B01BE
:101890007C01D0E0C0E0F70181917F01882361F0F5
:1018A000D8011896ED91FC911997B8010995892BEB
:1018B00091F3DFEFCFEFEFCF8D2F9C2F02C08FEF93
:1018C0009FEFCDB7DEB7E6E01CC0DC01FC01672F5F
:1018D00071917723E1F7329704C07C916D93708307
:1018E0006291AE17BF07C8F308952A8839884888DF
:1018F0005F846E847D848C849B84AA84B984C8842C
:10190000DF80EE80FD800C811B81AA81B981CE0F22
:10191000D11D0FB6F894DEBF0FBECDBFED01089507
:04192000F894FFCF69
:10192400008310000001041000000182080000017F
:1019340000000000000000000000004C61746974A5
:101944007564653A20004C6F6E6769747564653A16
:02195400200071
:00000001FF
